:020000040800F2
:10000000D02100204173000881710008837100082D
:1000100085710008877100088971000800000000E0
:100020000000000000000000000000008B710008CC
:100030008D710008000000008F71000891710008A8
:100040005D73000861730008657300086973000838
:100050006D730008717300087573000879730008E8
:100060007D7300088173000885730008A371000880
:10007000897300088D730008917300089573000858
:10008000997300082D590008997100089D730008A4
:10009000A1730008A5730008A9730008AD730008D8
:1000A000B1730008B5730008B9730008BD73000888
:1000B00033590008C1730008C5730008C9730008EC
:1000C000CD730008D1730008D5730008D9730008F8
:1000D000DD730008E1730008E5730008E9730008A8
:1000E000ED730008F1730008F57300082DE9F14F76
:1000F0009AB00D001A98008805EB80071A99D1F87C
:1001000004901895179740080E900E9805EB8006FE
:100110000E9807EB80080E9CA408002C00F01781B5
:100120002868139068681490A8681590E86816907D
:1001300038680A9078680B90B8680C90F8680D9051
:1001400030680F9070681090B0681190F06812904D
:10015000D8F800000690D8F804000790D8F80800F6
:100160000890D8F80C00099013980A9900F048FDFF
:1001700028602D1D14980B9900F042FD28602D1D5C
:1001800015980C9900F03CFD28602D1D16980D99CE
:1001900000F036FD28602D1D13980A9900F0A0FD8F
:1001A0000A9014980B9900F09BFD0B9015980C99F0
:1001B00000F096FD0C9016980D9900F091FD0D90B1
:1001C0000F98069900F01CFD3060361D10980799B5
:1001D00000F016FD3060361D1198089900F010FDF2
:1001E0003060361D1298099900F00AFD3060361D06
:1001F00006980F9900F074FD06900798109900F08A
:100200006FFD07900898119900F06AFD0890099811
:10021000129900F065FD0990D9F800B019F10400B9
:10022000D0F800A010F104090A98594600F0A0FD8A
:1002300003900B98514600F09BFD02900B98594695
:1002400000F096FD01900A98514600F091FD009053
:100250000398029900F0D4FC38603F1D0198009982
:1002600000F03EFD38603F1D0698514600F080FDCD
:1002700003900798594600F07BFD0290079851467D
:1002800000F076FD01900698594600F071FD00904F
:100290000398029900F024FDC8F8000018F1040842
:1002A0000198009900F0ACFCC8F8000018F10408AF
:1002B000D9F80000059019F104000168049110F1CB
:1002C00004090C98059900F053FD03900D980499CA
:1002D00000F04EFD02900D98059900F049FD019047
:1002E0000C98049900F044FD00900398029900F0E6
:1002F00087FC38603F1D0198009900F0F1FC3860E0
:100300003F1D0898049900F033FD03900998059962
:1003100000F02EFD02900998049900F029FD01904B
:100320000898059900F024FD00900398029900F0C8
:10033000D7FCC8F8000018F104080198009900F0F3
:100340005FFCC8F8000018F10408641EE5E602230B
:100350001A9842680E9989B2189800F075FD022328
:100360001A9842680E9989B2179800F06DFD1BB07B
:10037000BDE8F08F2DE9F14FA4B08846249800889D
:1003800080B2400880B208EB800909EB800A0AEBD2
:10039000800BCDF88480CDF88090CDF87CA0CDF88E
:1003A00078B0B9F10404BAF10405BBF1040606EB18
:1003B0008007249949680A910B910C9140080D908F
:1003C00002201D9004201C9006201B90D8F80010DD
:1003D000DAF8000000F014FC0890D8F80000DAF811
:1003E000001000F07DFC0990D8F80410DAF8040041
:1003F00000F006FC0790D8F80400DAF8041000F0CA
:100400006FFC06900999D9F8040000F0F9FBDBF8BD
:10041000041000F065FC16900698D9F8001000F062
:100420005FFCDBF8001000F0EBFB17900898D9F8A0
:10043000001000F055FCDBF8001000F051FC1290A9
:100440000798D9F8041000F04BFCDBF8041000F01A
:1004500047FC13900998D9F8041000F041FCDBF830
:10046000041000F0CDFB0E900699D9F8000000F0C2
:10047000C7FBDBF8001000F033FC0F900899D9F8A7
:10048000000000F0BDFBDBF8001000F0B9FBC8F87D
:10049000000018F104080799D9F8040000F0B0FB37
:1004A000DBF8041000F0ACFBC8F8000018F10408F9
:1004B0001698C9F8000019F104001799016010F1AD
:1004C00004091298CAF800001AF104001399016097
:1004D00010F1040A0E98CBF800001BF104000F99EC
:1004E000016010F1040B0C981D9900EB81000C9039
:1004F0000B981C9900EB81000B900A981B9900EB5C
:1005000081000A900D98801E40081A901A980028C1
:1005100000F0C881D8F80000DAF8001000F070FB95
:100520000890D8F80000DAF8001000F0D9FB099024
:10053000D8F80400DAF8041000F062FB0790D8F84D
:100540000400DAF8041000F0CBFB06900998D9F803
:10055000041000F055FBDBF8041000F0C1FB16900E
:100560000698D9F8001000F0BBFBDBF8001000F093
:1005700047FB17900898D9F8001000F0B1FBDBF8A2
:10058000001000F0ADFB12900798D9F8041000F0AD
:10059000A7FBDBF8041000F0A3FB13900998D9F82F
:1005A000041000F09DFBDBF8041000F029FB0E9016
:1005B0000698D9F8001000F023FBDBF8001000F0DB
:1005C0008FFB0F900898D9F8001000F019FBDBF8AA
:1005D000001000F015FBC8F8000018F10408079897
:1005E000D9F8041000F00CFBDBF8041000F008FB55
:1005F000C8F8000018F1040854F8040C56F8041C5C
:1006000000F0FEFA079054F8040C56F8041C00F0B1
:1006100067FB06902068316800F0F2FA08902068C5
:10062000316800F05DFB09902868396800F058FBDC
:10063000069900F0E5FA18902068316800F050FB48
:1006400055F8041C00F04CFB57F8041C00F0D8FAD5
:100650001990079855F8041C00F042FB57F8041C49
:1006600000F03EFB14900898296800F039FB3968C7
:1006700000F036FB15902868396800F031FB0699C8
:1006800000F02EFB109057F8040C55F8041C00F0F5
:1006900027FB099900F024FB11900898296800F0C5
:1006A000AFFA396800F0ACFA2060241F079855F8BB
:1006B000041C00F0A5FA57F8041C00F0A1FA206011
:1006C000241F0C98006805900C98001D016800918B
:1006D000001D0C901698059900F04AFB049017989D
:1006E000009900F045FB03901798059900F040FB36
:1006F00002901698009900F03BFB01900498039932
:1007000000F07EFAC9F8000019F104090298019975
:1007100000F0E6FAC9F8000019F1040919980099E7
:1007200000F026FB04901898059900F021FB039037
:100730001898009900F01CFB02901998059900F098
:1007400017FB01900498039900F0CAFA28602D1F46
:100750000298019900F054FA28602D1F0B98006848
:1007600005900B98406800900B981C9900EB810055
:100770000B901298059900F0FBFA049013980099D9
:1007800000F0F6FA03901398059900F0F1FA029040
:100790001298009900F0ECFA01900498039900F087
:1007A0002FFACAF800001AF1040A0298019900F021
:1007B00097FACAF800001AF1040A159890F0004060
:1007C000059900F0D5FA04901498009900F0D0FA39
:1007D00003901498059900F0CBFA029015980099AF
:1007E00000F0C6FA01900498039900F079FA30609D
:1007F000361F0198029900F073FA3060361F0A988C
:10080000006805900A98406800900A981B9900EBD0
:1008100081000A900E98059900F0AAFA04900F98AA
:10082000009900F0A5FA03900F98059900F0A0FA3E
:1008300002900E98009900F09BFA01900498039999
:1008400000F0DEF9CBF800001BF1040B02980199CF
:1008500000F046FACBF800001BF1040B1198009948
:1008600000F086FA04901098059900F081FA039040
:100870001098009900F07CFA02901198059900F008
:1008800077FA01900498039900F02AFA38603F1F24
:100890000298019900F0B4F938603F1F1A98401E81
:1008A0001A9033E6D8F80010DAF8000000F0A8F942
:1008B0000890D8F80000DAF8001000F011FA09905A
:1008C000D8F80410DAF8040000F09AF90790D8F884
:1008D0000400DAF8041000F003FA06900999D9F838
:1008E000040000F08DF9DBF8041000F0F9F916901F
:1008F0000698D9F8001000F0F3F9DBF8001000F0CA
:100900007FF917900898D9F8001000F0E9F9DBF8A2
:10091000001000F0E5F912900798D9F8041000F0E3
:10092000DFF9DBF8041000F0DBF913900998D9F82F
:10093000041000F0D5F9DBF8041000F061F90E9016
:100940000699D9F8000000F05BF9DBF8001000F020
:10095000C7F90F900899D9F8000000F051F9DBF8B9
:10096000001000F04DF9C8F8000018F104080799CC
:10097000D9F8040000F044F9DBF8041000F040F965
:10098000C8F8000018F1040023900C980068059046
:100990000C98406800901699059800F0E9F90490C9
:1009A0001799009800F0E4F903901799059800F062
:1009B000DFF902901699009800F0DAF90190049995
:1009C000039800F01DF9C9F8000019F10408029815
:1009D000019900F085F9C8F8000018F10400229090
:1009E0000B98D0F800800B98406800901298414610
:1009F00000F0BEF904901399009800F0B9F9039043
:100A00001398414600F0B4F902901299009800F052
:100A1000AFF901900499039800F0F2F8CAF80000C9
:100A20001AF104090298019900F05AF9C9F8000076
:100A300019F1040005900A98D0F800900A984068CF
:100A400000900E98494600F093F904900F99009891
:100A500000F08EF903900F98494600F089F9029052
:100A60000E99009800F084F901900499039800F021
:100A7000C7F8CBF800001BF1040A0298019900F0B6
:100A80002FF9CAF800001AF1040A042324984268D6
:100A90000D9989B2219800F0D7F90423249842686F
:100AA0000D9989B2209800F0CFF904232498426868
:100AB0000D9989B21F9800F0C7F904232498426861
:100AC0000D9989B21E9800F0BFF925B0BDE8F08FEE
:100AD0002DE9F84F05000E0017009B46B5F8008081
:100AE0003800C0B2012810D1301D81460020824656
:100AF000C2450AD2D9F8000090F00040C9F80000C1
:100B000019F108091AF1010AF2E74046102815D038
:100B1000202818D040281BD080280FD0B0F5807F27
:100B200011D0B0F5007F13D0B0F5806F06D0B0F5CE
:100B3000006F08D0B0F5805F0AD010E031002800C7
:100B4000FFF7D4FA0BE031002800FFF713FC06E0B2
:100B500001236A68414689B2300000F075F95846B1
:100B6000C0B2002804D0AA68A989300000F024FE91
:100B70003800C0B2012824D1404600F07DFE0100BB
:100B80005FF07E5000F086FE0400B14600208246F1
:100B9000C24516D2D9F80010200000F0E9F8C9F8D3
:100BA000000019F10409D9F8001091F0004120006B
:100BB00000F0DEF8C9F8000019F104091AF1010A81
:100BC000E6E7BDE8F18F30B50168846842184168F6
:100BD00002EB5103C90703D54C4401E0491C08D17D
:100BE0009A4218BF12F9011B01D10C3030BD12F826
:100BF000015B002904F8015BF0D4491EF7D5EFE74B
:100C000090EA010F40F1728081F00041431A4FF0E9
:100C100000423EBF5340C01AC918D3095FEAD05CF6
:100C200013EB400F34BFB3EB410F40E07CEBD153EB
:100C30000CD342EA012122D8D1EB402009D3400A4B
:100C400028BF5FEA500140EBCC507047401A15D0E6
:100C50004002B0FA80F2521C9040400A4FEA3C2316
:100C6000B3EB026384BF00EB730007E040F40000C5
:100C70001A16DB07C2F10102D04018437047182B47
:100C8000FCDC31FA03F202FA03F3591A38BF42F0DE
:100C90000102D2EB40203CBF0018ACF1010C5FEA2E
:100CA000CC5CC20572F100414CEB5020704713EB55
:100CB000400F0FD2C94209D0ACEBD153022B03DB5A
:100CC0004902172BDDDD70479143401AC042D5D150
:100CD0000020704713EB410FD0D36FF00000704736
:100CE00090EA010F7FF592AF81F00041421A3CBFBC
:100CF000801A8918C0F3C752FF2A4FF0004C22D047
:100D0000C1F3C7534BB3D21AD2F119032EDD4CEA0B
:100D100001214CFA03F321EA0303D1404CEA0022FB
:100D20006FF3160052180FD353EAC2534CEA520223
:100D300073EB0C0C50EB1220420012F1807F38BF95
:100D400070476FF31600704753EA026322EA0C0201
:100D500073EB0C0C50EB12207047490212BF9A4201
:100D600000EB5120EFE7D2F11703D2D57047010213
:100D7000FF2212EAD05C1DBF12EAD1539445934280
:100D80002BE09C44D30780EA010243EA002043EAB7
:100D900001211A40A1FB0030C04238BF00187CF18D
:100DA0007F010BDBFE294ADA5B0842EAC15153EAB4
:100DB000006373F1004C51EB10207047D1F1080C27
:100DC000DCF120012FDB5B0810FA01F10B4320FA64
:100DD0000CF073F100415041704794451CBF02EA8A
:100DE000D153934280EA010202F000421DD040003C
:100DF00019D0490017D05BB9634514D00902B1FA84
:100E000081F39940BCEB030CC00140F00040C1E706
:100E10000002B0FA80FC10FA0CF0B3EB0C0CC90124
:100E200041F00041B6E71000704740000AD0490089
:100E300008D010F1807F94BF11F1807F02E042F072
:100E4000FF407047D04370472DE9FF4FB7B0040013
:100E5000DFF860091A90BDF8E00001900198359024
:100E60000198C008019000200500019840190790E2
:100E70000799019841180691069901984118059122
:100E8000059901984118049104990198411803911A
:100E900003990198411802910299019841180C9107
:100EA00054F83510049854F83000FFF7A9FE814635
:100EB00054F83500049954F83110FFF711FF06007B
:100EC000079854F83010039854F83000FFF798FE54
:100ED0008246079854F83000039954F83110FFF710
:100EE000FFFE0700069854F83010029854F83000BE
:100EF000FFF786FE1390069854F83000029954F8D4
:100F00003110FFF7EDFE8046059854F830100C982C
:100F100054F83000FFF774FE1790059854F830002D
:100F20000C9954F83110FFF7DBFE119048461399E5
:100F3000FFF7D6FE089013984946FFF761FE009030
:100F400050461799FFF7CCFE139017985146FFF7BC
:100F500057FE099000990998FFF752FE44F83500B2
:100F600000980999FFF7BCFE049944F8310004EB9E
:100F7000C5004168049804EBC0004068FFF740FEDC
:100F8000009004EBC5004068049904EBC101496876
:100F9000FFF7A6FE8146079804EBC000416803985E
:100FA00004EBC0004068FFF72BFE0990079804EBA4
:100FB000C0004068039904EBC1014968FFF790FE47
:100FC0008246069804EBC0004168029804EBC0001A
:100FD0004068FFF715FE0E90069804EBC0004068CD
:100FE000029904EBC1014968FFF77AFE8346059830
:100FF00004EBC00041680C9804EBC0004068FFF7A8
:10100000FFFD1790059804EBC00040680C9904EBB5
:10101000C1014968FFF764FE0D9000980E99FFF733
:101020005FFE109000990E98FFF7EAFD0090099876
:101030001799FFF755FE0E9009991798FFF7E0FDF5
:10104000099000990998FFF7DBFD04EBC5014860A2
:1010500000980999FFF744FE049904EBC101486028
:1010600008990E98FFF7CCFD069944F831000898CE
:101070000E99FFF735FE029944F831001098139944
:10108000FFF72EFE069904EBC101486010991398F2
:10109000FFF7B6FD029904EBC101486038001199D1
:1010A000FFF71EFE1A99FFF763FE009011983900B2
:1010B000FFF7A6FD1A99FFF75BFE129050460D99B7
:1010C000FFF70EFE1A99FFF753FE09900D9851464F
:1010D000FFF796FD1A99FFF74BFE14903000009928
:1010E000FFF7FEFD089000983100FFF789FD16908C
:1010F00040461299FFF7F4FD119012984146FFF710
:101100007FFD159048460999FFF7EAFD1090099870
:101110004946FFF775FD1D9058461499FFF7E0FD0D
:101120000D9014985946FFF76BFD1C9016991C986A
:10113000FFF766FD079944F8310016981C99FFF7F0
:10114000CFFD0C9944F8310008990D98FFF758FD30
:10115000039944F8310008980D99FFF7C1FD0599EE
:1011600044F831001D981599FFF7BAFD079904EB73
:10117000C10148601D991598FFF742FD0C9904EBD9
:10118000C101486010981199FFF7AAFD039904EB7B
:10119000C101486010991198FFF732FD059904EBE1
:1011A000C101486035984519BDF8E0008542FFF45B
:1011B0005CAE01980828C0F0F98200201E90012042
:1011C0001F901E99BDF8E80041181B911B981E90B6
:1011D0001E991B984118249124991B98411823911A
:1011E00023991B984118229122991B98411821910B
:1011F00021991B984118209120991B9841183691EC
:1012000039981E9950F8310032903998249950F845
:10121000310031903998239950F831003090399845
:10122000229950F831002F903998219950F83100C7
:101230002E903998209950F831002D903998369990
:1012400050F831002C9039981E9900EBC10040688D
:101250002B903998249900EBC10040682A90399866
:10126000239900EBC100406829903998229900EB3E
:10127000C100406828903998219900EBC10040686E
:1012800027903998209900EBC10040682690399842
:10129000369900EBC100406825901F980500019821
:1012A00040190790079901984118069106990198ED
:1012B00041180591059901984118049104990198E4
:1012C00041180391039901984118029102990198DC
:1012D00041180C9154F83500049954F83110FFF777
:1012E0008FFC060054F83500049954F83110FFF7CC
:1012F000F7FC1690079854F83000039954F8311011
:10130000FFF77EFC0700079854F83000039954F863
:101310003110FFF7E5FC1290069854F8300002995E
:1013200054F83110FFF76CFC1390069854F8300015
:10133000029954F83110FFF7D3FC1590059854F832
:1013400030000C9954F83110FFF75AFC17900598AB
:1013500054F830000C9954F83110FFF7C1FC11908B
:1013600030001399FFF7BCFC089013983100FFF789
:1013700047FC009038001799FFF7B2FC13901798BC
:101380003900FFF73DFC060000983100FFF738FCFC
:1013900044F8350000983100FFF7A2FC099004EBF7
:1013A000C5004068049904EBC1014968FFF728FCB7
:1013B000834604EBC5004068049904EBC101496809
:1013C000FFF78EFC0600079804EBC0004068039905
:1013D00004EBC1014968FFF713FC8246079804EB50
:1013E000C0004068039904EBC1014968FFF778FC2D
:1013F0000700069804EBC0004068029904EBC101A5
:101400004968FFF7FDFB0E90069804EBC0004068AA
:10141000029904EBC1014968FFF762FC8046059818
:1014200004EBC00040680C9904EBC1014968FFF768
:10143000E7FB3390059804EBC00040680C9904EB7F
:10144000C1014968FFF74CFC0D9058460E99FFF713
:1014500047FC81460E985946FFF7D2FB0F90504645
:101460003399FFF73DFC0E9033985146FFF7C8FBC8
:10147000824608980E99FFF7C3FB009008980E99D2
:10148000FFF72EFC08900F985146FFF7B9FB04EBCD
:10149000C50148600F985146FFF722FC349048463A
:1014A0001399FFF71DFC0F9013984946FFF7A8FB0F
:1014B00010902F980999FFF75BFC0B9028983499AE
:1014C000FFF756FC0A902F983499FFF751FC1990BA
:1014D00028980999FFF74CFC18900B980A99FFF788
:1014E0008FFB049944F8310019981899FFF7F8FB1D
:1014F000049904EBC101486031980099FFF738FC6A
:101500000B902A980F99FFF733FC0A9031980F99A6
:10151000FFF72EFC19902A980099FFF729FC1890E4
:101520000B980A99FFF76CFB069944F8310019985B
:101530001899FFF7D5FB069904EBC10148602D9877
:101540000899FFF715FC0B9026981099FFF710FCEF
:101550000A902D981099FFF70BFC1990269808997E
:10156000FFF706FC18900B980A99FFF749FB0299C0
:1015700044F8310019981899FFF7B2FB029904EB6F
:10158000C101486012981199FFF7AAFB1A99FFF759
:10159000EFFB009012981199FFF732FB1A99FFF7B1
:1015A000E7FB129038000D99FFF79AFB1A99FFF7A5
:1015B000DFFB0F900D983900FFF722FB1A99FFF718
:1015C000D7FB149016980099FFF78AFB070016982E
:1015D0000099FFF715FB814615981299FFF780FBDC
:1015E000119015981299FFF70BFB159030000F9989
:1015F000FFF776FB82460F983100FFF701FB0600EC
:1016000040461499FFF76CFB0D9014984146FFF784
:10161000F7FA1C901C984946FFF7F2FA00904846EA
:101620001C99FFF75DFB16900D983900FFF7E8FA5B
:10163000129038000D99FFF753FB08903000159970
:10164000FFF74EFB0F9015983100FFF7D9FA1D9068
:1016500050461199FFF744FB149011985146FFF73B
:10166000CFFA109032980099FFF782FB0B902B98DD
:101670000F99FFF77DFB0A9032980F99FFF778FBDF
:1016800006002B980099FFF773FB07000B980A9947
:10169000FFF7B6FA079944F8310030003900FFF738
:1016A0001FFB079904EBC10148602C981699FFF7BE
:1016B0005FFB0B9025981D99FFF75AFB0A902C9819
:1016C0001D99FFF755FB804625981699FFF750FBAB
:1016D00081460B980A99FFF793FA0C9944F8310068
:1016E00040464946FFF7FCFA0C9904EBC1014860FB
:1016F0002E981299FFF73CFB0B9027981499FFF74F
:1017000037FB0A902E981499FFF732FB82462798F0
:101710001299FFF72DFB83460B980A99FFF770FA91
:10172000039944F8310050465946FFF7D9FA039916
:1017300004EBC101486030980899FFF719FB0B9042
:1017400029981099FFF714FB0A9030981099FFF729
:101750000FFB199029980899FFF70AFB18900B982E
:101760000A99FFF74DFA059944F83100199818992C
:10177000FFF7B6FA059904EBC101486035984519A1
:10178000BDF8E0008542FFF48AAD1F98401C1F9011
:101790001F9801998842FFF414ADBDF8E800C0001D
:1017A000ADF8E80001980828BFF458AB3BB0BDE89D
:1017B000F08F00BFF304353F4B1C012B98BF7047DF
:1017C0002DE9F003911C9B08B1F80480B1F8029058
:1017D0000A8831F802CC8044814402448444D9F818
:1017E0000070D8F800601568DCF80040C9F80060A7
:1017F000C8F80070CCF800501460D9F80470D8F81C
:1018000004605568DCF80440C9F80460C8F8047046
:10181000CCF80450546008315B1ED5D1BDE8F0030C
:1018200070474B1C012B98BF70472DE9F003911CAA
:101830009B08B1F80480B1F802900A8831F802CC14
:1018400000EB580800EB590900EB520200EB5C0C6E
:10185000D9F80070D8F800601568DCF80040C9F8C5
:101860000060C8F80070CCF80050146008315B1EAE
:10187000DFD1BDE8F003704750B1B0FA80F1884085
:10188000C1F19D01C905020672F1004241EB102031
:10189000704701024FF0FF0C1CEAD0531DBF1CEA39
:1018A000D1526345624543E09B1A5FEACC7280EAFD
:1018B000010C42EA01211CEA020C42EA0020421A11
:1018C00038BF01EB420253F17E034FEA1121B2FB14
:1018D000F1F001FB102260F3D63C4FEA0222B2FB8A
:1018E000F1F001FB102260F3CE1C4FEA0222B2FBA2
:1018F000F1F006DDFF2B29DA5CEA500040EBC35023
:101900007047C3F1020301FB1022192B40EA4C017E
:101910000CF0004C41F0807121DC21FA03F0C3F19E
:1019200020039940114371F1004250EB0C007047C5
:1019300063451ABF0CEAD152624512E080EA010CFD
:1019400000180CF0004C06D049181AD10CF0004CCD
:101950004CF0FF407047C94208BF6FEA020C604676
:101960007047634506D1B2EB0C02F5D001F000419F
:10197000484070474A0212BF0846484000F0004005
:1019800070474AB90902B1FA81F2914043B19B18FC
:10199000C00140F0004092E7C90141F000415242CD
:1019A0000002B0FA80F39840D31A88E70000803F25
:1019B0000000000043EC7F3FB00AC93C0FB17F3FFD
:1019C0002FFB483D6D4E7F3F05A9963D6DC47E3F80
:1019D00036BDC83D24137E3F73B2FA3DAC3A7D3F1D
:1019E0008340163E283B7C3FA2102F3EBE147B3F17
:1019F000C2C5473E9DC7793F135C603EF853783FB0
:101A0000CCCF783E07BA763F938E883E0BFA743F70
:101A100031A0943E4714733FE59AA03E0809713FF8
:101A2000D47CAC3E9ED86E3F2A44B83E5E836C3F69
:101A300015EFC33EA7096A3FCA7BCF3ED86B673F0D
:101A400080E8DA3E59AA643F7533E63E98C5613FA7
:101A5000EA5AF13E05BE5E3F275DFC3E1A945B3FAD
:101A60003D9C033F5348583F9BF5083F31DB543FB3
:101A7000DA390E3F3D4D513F2A68133F029F4D3FDB
:101A8000C07F183F12D1493FD17F1D3F03E4453F3E
:101A90009967223F70D8413F5636273FF9AE3D3F08
:101AA0004AEB2B3F4268393FBB85303FF304353F5B
:101AB000F304353FBB85303F4268393F4AEB2B3F4B
:101AC000F9AE3D3F5636273F70D8413F9967223FD8
:101AD00003E4453FD17F1D3F12D1493FC07F183FEE
:101AE000029F4D3F2A68133F3D4D513FDA390E3F6B
:101AF00031DB543F9BF5083F5348583F3D9C033F23
:101B00001A945B3F275DFC3E05BE5E3FEA5AF13EFC
:101B100098C5613F7533E63E59AA643F80E8DA3ED6
:101B2000D86B673FCA7BCF3EA7096A3F15EFC33E1C
:101B30005E836C3F2A44B83E9ED86E3FD47CAC3E58
:101B40000809713FE59AA03E4714733F31A0943EC7
:101B50000BFA743F938E883E07BA763FCCCF783E1F
:101B6000F853783F135C603E9DC7793FC2C5473E3E
:101B7000BE147B3FA2102F3E283B7C3F8340163E85
:101B8000AC3A7D3F73B2FA3D24137E3F36BDC83D6B
:101B90006DC47E3F05A9963D6D4E7F3F2FFB483DAE
:101BA0000FB17F3FB00AC93C43EC7F3F000000000B
:101BB0000000803FB00AC9BC43EC7F3F2FFB48BD0B
:101BC0000FB17F3F05A996BD6D4E7F3F36BDC8BDA5
:101BD0006DC47E3F73B2FABD24137E3F834016BEB0
:101BE000AC3A7D3FA2102FBE283B7C3FC2C547BE0A
:101BF000BE147B3F135C60BE9DC7793FCCCF78BEDF
:101C0000F853783F938E88BE07BA763F31A094BED2
:101C10000BFA743FE59AA0BE4714733FD47CACBE68
:101C20000809713F2A44B8BE9ED86E3F15EFC3BE67
:101C30005E836C3FCA7BCFBEA7096A3F80E8DABEED
:101C4000D86B673F7533E6BE59AA643FEA5AF1BEC6
:101C500098C5613F275DFCBE05BE5E3F3D9C03BF4E
:101C60001A945B3F9BF508BF5348583FDA390EBFC3
:101C700031DB543F2A6813BF3D4D513FC07F18BF31
:101C8000029F4D3FD17F1DBF12D1493F996722BFAF
:101C900003E4453F563627BF70D8413F4AEB2BBF80
:101CA000F9AE3D3FBB8530BF4268393FF30435BFD5
:101CB000F304353F426839BFBB85303FF9AE3DBFC5
:101CC0004AEB2B3F70D841BF5636273F03E445BF50
:101CD0009967223F12D149BFD17F1D3F029F4DBF5F
:101CE000C07F183F3D4D51BF2A68133F31DB54BFC1
:101CF000DA390E3F534858BF9BF5083F1A945BBF33
:101D00003D9C033F05BE5EBF275DFC3E98C561BF9D
:101D1000EA5AF13E59AA64BF7533E63ED86B67BFF5
:101D200080E8DA3EA7096ABFCA7BCF3E5E836CBFFC
:101D300015EFC33E9ED86EBF2A44B83E080971BF56
:101D4000D47CAC3E471473BFE59AA03E0BFA74BF37
:101D500031A0943E07BA76BF938E883EF85378BF81
:101D6000CCCF783E9DC779BF135C603EBE147BBF6D
:101D7000C2C5473E283B7CBFA2102F3EAC3A7DBF78
:101D80008340163E24137EBF73B2FA3D6DC47EBFFE
:101D900036BDC83D6D4E7FBF05A9963D0FB17FBFD3
:101DA0002FFB483D43EC7FBFB00AC93C000080BF19
:101DB0000000000043EC7FBFB00AC9BC0FB17FBF79
:101DC0002FFB48BD6D4E7FBF05A996BD6DC47EBF7C
:101DD00036BDC8BD24137EBF73B2FABDAC3A7DBF19
:101DE000834016BE283B7CBFA2102FBEBE147BBF13
:101DF000C2C547BE9DC779BF135C60BEF85378BFAC
:101E0000CCCF78BE07BA76BF938E88BE0BFA74BF6C
:101E100031A094BE471473BFE59AA0BE080971BFF4
:101E2000D47CACBE9ED86EBF2A44B8BE5E836CBF65
:101E300015EFC3BEA7096ABFCA7BCFBED86B67BF09
:101E400080E8DABE59AA64BF7533E6BE98C561BFA3
:101E5000EA5AF1BE05BE5EBF275DFCBE1A945BBFA9
:101E60003D9C03BF534858BF9BF508BF31DB54BFAF
:101E7000DA390EBF3D4D51BF2A6813BF029F4DBFD7
:101E8000C07F18BF12D149BFD17F1DBF03E445BF3A
:101E9000996722BF70D841BF563627BFF9AE3DBF04
:101EA0004AEB2BBF426839BFBB8530BFF30435BF57
:101EB000F30435BFBB8530BF426839BF4AEB2BBF47
:101EC000F9AE3DBF563627BF70D841BF996722BFD4
:101ED00003E445BFD17F1DBF12D149BFC07F18BFEA
:101EE000029F4DBF2A6813BF3D4D51BFDA390EBF67
:101EF00031DB54BF9BF508BF534858BF3D9C03BF1F
:101F00001A945BBF275DFCBE05BE5EBFEA5AF1BEF8
:101F100098C561BF7533E6BE59AA64BF80E8DABED2
:101F2000D86B67BFCA7BCFBEA7096ABF15EFC3BE18
:101F30005E836CBF2A44B8BE9ED86EBFD47CACBE54
:101F4000080971BFE59AA0BE471473BF31A094BEC3
:101F50000BFA74BF938E88BE07BA76BFCCCF78BE1B
:101F6000F85378BF135C60BE9DC779BFC2C547BE3A
:101F7000BE147BBFA2102FBE283B7CBF834016BE81
:101F8000AC3A7DBF73B2FABD24137EBF36BDC8BD67
:101F90006DC47EBF05A996BD6D4E7FBF2FFB48BDAA
:101FA0000FB17FBFB00AC9BC43EC7FBF0000008007
:101FB000000080BFB00AC93C43EC7FBF2FFB483D07
:101FC0000FB17FBF05A9963D6D4E7FBF36BDC83DA1
:101FD0006DC47EBF73B2FA3D24137EBF8340163EAC
:101FE000AC3A7DBFA2102F3E283B7CBFC2C5473E06
:101FF000BE147BBF135C603E9DC779BFCCCF783EDB
:10200000F85378BF938E883E07BA76BF31A0943ECE
:102010000BFA74BFE59AA03E471473BFD47CAC3E64
:10202000080971BF2A44B83E9ED86EBF15EFC33E63
:102030005E836CBFCA7BCF3EA7096ABF80E8DA3EE9
:10204000D86B67BF7533E63E59AA64BFEA5AF13EC2
:1020500098C561BF275DFC3E05BE5EBF3D9C033F4A
:102060001A945BBF9BF5083F534858BFDA390E3FBF
:1020700031DB54BF2A68133F3D4D51BFC07F183F2D
:10208000029F4DBFD17F1D3F12D149BF9967223FAB
:1020900003E445BF5636273F70D841BF4AEB2B3F7C
:1020A000F9AE3DBFBB85303F426839BFF304353FD1
:1020B000F30435BF4268393FBB8530BFF9AE3D3FC1
:1020C0004AEB2BBF70D8413F563627BF03E4453F4C
:1020D000996722BF12D1493FD17F1DBF029F4D3F5B
:1020E000C07F18BF3D4D513F2A6813BF31DB543FBD
:1020F000DA390EBF5348583F9BF508BF1A945B3F2F
:102100003D9C03BF05BE5E3F275DFCBE98C5613F99
:10211000EA5AF1BE59AA643F7533E6BED86B673FF1
:1021200080E8DABEA7096A3FCA7BCFBE5E836C3FF8
:1021300015EFC3BE9ED86E3F2A44B8BE0809713F52
:10214000D47CACBE4714733FE59AA0BE0BFA743F33
:1021500031A094BE07BA763F938E88BEF853783F7D
:10216000CCCF78BE9DC7793F135C60BEBE147B3F69
:10217000C2C547BE283B7C3FA2102FBEAC3A7D3F74
:10218000834016BE24137E3F73B2FABD6DC47E3FFA
:1021900036BDC8BD6D4E7F3F05A996BD0FB17F3FCF
:1021A0002FFB48BD43EC7F3FB00AC9BC00000000D4
:1021B0000000803F900E493C11FB7F3FB00AC93CB4
:1021C00043EC7F3F2CC3163D98D37F3F2FFB483D08
:1021D0000FB17F3F742B7B3DAB847F3F05A9963DBC
:1021E0006D4E7F3F80B6AF3D580E7F3F36BDC83D38
:1021F0006DC47E3F2EBCE13DB0707E3F73B2FA3DB0
:1022000024137E3F86CF093ECCAB7D3F8340163EF4
:10221000AC3A7D3FB6AB223EC9BF7C3FA2102F3EF9
:10222000283B7C3FCF6E3B3ECDAC7B3FC2C5473E9B
:10223000BE147B3F0115543E02737A3F135C603E2F
:102240009DC7793F7F9A6C3E9812793FCCCF783EFC
:10225000F853783FC07D823EC58B773F938E883E92
:1022600007BA763F229A8E3EC6DE753F31A0943E75
:102270000BFA743F86A09A3EDD0B743FE59AA03EB0
:102280004714733F128FA63E5213723FD47CAC3E6C
:102290000809713FEF63B23E73F56F3F2A44B83EC1
:1022A0009ED86E3F4A1DBE3E93B26D3F15EFC33EB2
:1022B0005E836C3F53B9C93E0C4B6B3FCA7BCF3E2C
:1022C000A7096A3F4136D53E3CBF683F80E8DA3E09
:1022D000D86B673F4F92E03E880F663F7533E63E0E
:1022E00059AA643FBBCBEB3E5A3C633FEA5AF13EEE
:1022F00098C5613FCBE0F63E2146603F275DFC3E3E
:1023000005BE5E3FE4E7003F532D5D3F3D9C033F2C
:102310001A945B3F824B063F6AF2593F9BF5083F98
:102320005348583F6B9A0B3FE595563FDA390E3FBD
:1023300031DB543FCDD3103F4918533F2A68133F38
:102340003D4D513FD9F6153F1F7A4F3FC07F183F93
:10235000029F4D3FC6021B3FF8BB4B3FD17F1D3F45
:1023600012D1493FCBF61F3F65DE473F9967223FB9
:1023700003E4453F25D2243F00E2433F5636273F42
:1023800070D8413F1594293F67C73F3F4AEB2B3F29
:10239000F9AE3D3FDE3B2E3F3B8F3B3FBB85303FA1
:1023A0004268393FC9C8323F233A373FF304353FCB
:1023B000F304353F233A373FC9C8323F4268393FBB
:1023C000BB85303F3B8F3B3FDE3B2E3FF9AE3D3F71
:1023D0004AEB2B3F67C73F3F1594293F70D8413FD9
:1023E0005636273F00E2433F25D2243F03E4453FD2
:1023F0009967223F65DE473FCBF61F3F12D1493F29
:10240000D17F1D3FF8BB4B3FC6021B3F029F4D3F94
:10241000C07F183F1F7A4F3FD9F6153F3D4D513FC2
:102420002A68133F4918533FCDD3103F31DB543F47
:10243000DA390E3FE595563F6B9A0B3F5348583FAC
:102440009BF5083F6AF2593F824B063F1A945B3F67
:102450003D9C033F532D5D3FE4E7003F05BE5E3FDB
:10246000275DFC3E2146603FCBE0F63E98C5613FCC
:10247000EA5AF13E5A3C633FBBCBEB3E59AA643F5C
:102480007533E63E880F663F4F92E03ED86B673F5C
:1024900080E8DA3E3CBF683F4136D53EA7096A3F37
:1024A000CA7BCF3E0C4B6B3F53B9C93E5E836C3F3A
:1024B00015EFC33E93B26D3F4A1DBE3E9ED86E3FA0
:1024C0002A44B83E73F56F3FEF63B23E0809713F8F
:1024D000D47CAC3E5213723F128FA63E4714733F1A
:1024E000E59AA03EDD0B743F86A09A3E0BFA743F3E
:1024F00031A0943EC6DE753F229A8E3E07BA763FE3
:10250000938E883EC58B773FC07D823EF853783FDF
:10251000CCCF783E9812793F7F9A6C3E9DC7793F29
:10252000135C603E02737A3F0115543EBE147B3F3C
:10253000C2C5473ECDAC7B3FCF6E3B3E283B7C3F88
:10254000A2102F3EC9BF7C3FB6AB223EAC3A7D3FC6
:102550008340163ECCAB7D3F86CF093E24137E3FA1
:1025600073B2FA3DB0707E3F2EBCE13D6DC47E3F3C
:1025700036BDC83D580E7F3F80B6AF3D6D4E7F3FA4
:1025800005A9963DAB847F3F742B7B3D0FB17F3F08
:102590002FFB483D98D37F3F2CC3163D43EC7F3F34
:1025A000B00AC93C11FB7F3F900E493C0000803FC0
:1025B0000000000011FB7F3F900E49BC43EC7F3FC1
:1025C000B00AC9BC98D37F3F2CC316BD0FB17F3F63
:1025D0002FFB48BDAB847F3F742B7BBD6D4E7F3F8F
:1025E00005A996BD580E7F3F80B6AFBD6DC47E3F36
:1025F00036BDC8BDB0707E3F2EBCE1BD24137E3F0A
:1026000073B2FABDCCAB7D3F86CF09BEAC3A7D3FFD
:10261000834016BEC9BF7C3FB6AB22BE283B7C3F81
:10262000A2102FBECDAC7B3FCF6E3BBEBE147B3F16
:10263000C2C547BE02737A3F011554BE9DC7793F9C
:10264000135C60BE9812793F7F9A6CBEF853783F56
:10265000CCCF78BEC58B773FC07D82BE07BA763FB0
:10266000938E88BEC6DE753F229A8EBE0BFA743FEB
:1026700031A094BEDD0B743F86A09ABE4714733F11
:10268000E59AA0BE5213723F128FA6BE0809713F91
:10269000D47CACBE73F56F3FEF63B2BE9ED86E3F85
:1026A0002A44B8BE93B26D3F4A1DBEBE5E836C3FE6
:1026B00015EFC3BE0C4B6B3F53B9C9BEA7096A3FA8
:1026C000CA7BCFBE3CBF683F4136D5BED86B673FA3
:1026D00080E8DABE880F663F4F92E0BE59AA643F99
:1026E0007533E6BE5A3C633FBBCBEBBE98C5613F3A
:1026F000EA5AF1BE2146603FCBE0F6BE05BE5E3F22
:10270000275DFCBE532D5D3FE4E700BF1A945B3F9D
:102710003D9C03BF6AF2593F824B06BF5348583F66
:102720009BF508BFE595563F6B9A0BBF31DB543FD5
:10273000DA390EBF4918533FCDD310BF3D4D513F3D
:102740002A6813BF1F7A4F3FD9F615BF029F4D3F2E
:10275000C07F18BFF8BB4B3FC6021BBF12D1493F19
:10276000D17F1DBF65DE473FCBF61FBF03E4453F6A
:10277000996722BF00E2433F25D224BF70D8413F72
:10278000563627BF67C73F3F159429BFF9AE3D3F77
:102790004AEB2BBF3B8F3B3FDE3B2EBF4268393FAE
:1027A000BB8530BF233A373FC9C832BFF304353F3A
:1027B000F30435BFC9C8323F233A37BFBB85303F2A
:1027C000426839BFDE3B2E3F3B8F3BBF4AEB2B3F7E
:1027D000F9AE3DBF1594293F67C73FBF5636273F27
:1027E00070D841BF25D2243F00E243BF9967223F02
:1027F00003E445BFCBF61F3F65DE47BFD17F1D3FDA
:1028000012D149BFC6021B3FF8BB4BBFC07F183F68
:10281000029F4DBFD9F6153F1F7A4FBF2A68133F5D
:102820003D4D51BFCDD3103F491853BFDA390E3F4C
:1028300031DB54BF6B9A0B3FE59556BF9BF5083FC4
:10284000534858BF824B063F6AF259BF3D9C033F35
:102850001A945BBFE4E7003F532D5DBF275DFC3E4C
:1028600005BE5EBFCBE0F63E214660BFEA5AF13EB0
:1028700098C561BFBBCBEB3E5A3C63BF7533E63EA8
:1028800059AA64BF4F92E03E880F66BF80E8DA3EE7
:10289000D86B67BF4136D53E3CBF68BFCA7BCF3ED1
:1028A000A7096ABF53B9C93E0C4B6BBF15EFC33EB6
:1028B0005E836CBF4A1DBE3E93B26DBF2A44B83ED4
:1028C0009ED86EBFEF63B23E73F56FBFD47CAC3E53
:1028D000080971BF128FA63E521372BFE59AA03E3F
:1028E000471473BF86A09A3EDD0B74BF31A0943E9F
:1028F0000BFA74BF229A8E3EC6DE75BF938E883E59
:1029000007BA76BFC07D823EC58B77BFCCCF783EFD
:10291000F85378BF7F9A6C3E981279BF135C603E83
:102920009DC779BF0115543E02737ABFC2C5473EA9
:10293000BE147BBFCF6E3B3ECDAC7BBFA2102F3E03
:10294000283B7CBFB6AB223EC9BF7CBF8340163E4E
:10295000AC3A7DBF86CF093ECCAB7DBF73B2FA3DAA
:1029600024137EBF2EBCE13DB0707EBF36BDC83D96
:102970006DC47EBF80B6AF3D580E7FBF05A9963DA2
:102980006D4E7FBF742B7B3DAB847FBF2FFB483DDB
:102990000FB17FBF2CC3163D98D37FBFB00AC93C8F
:1029A00043EC7FBF900E493C11FB7FBFF8B504009C
:1029B000002C01D1012039E22078C00740F1848049
:1029C000DFF89406006810F00C0004280BD0DFF844
:1029D0008806006810F00C0008280ED1DFF8780691
:1029E0000068C00309D5DFF86C06006880036BD56A
:1029F0006068002868D1012018E26068B0F5803F67
:102A000008D1DFF85006006850F48030DFF8441633
:102A1000086038E06068002810D1DFF838060068E8
:102A200030F48030DFF82C160860DFF828060068E4
:102A300030F48020DFF81C16086024E06068B0F5F0
:102A4000A02F10D1DFF80C06006850F48020DFF8CA
:102A500004160860DFF8FC05006850F48030DFF8E9
:102A6000F41508600FE0DFF8EC05006830F4803002
:102A7000DFF8E0150860DFF8DC05006830F480203E
:102A8000DFF8D0150860606800280ED000F006FB63
:102A90000500DFF8C0050068800315D400F0FEFAD9
:102AA000401B6528F5D30320C0E100F0F7FA0500CC
:102AB000DFF8A0050068800306D500F0EFFA401BA0
:102AC0006528F5D30320B1E1207880075CD5DFF8D5
:102AD0008805006810F00C0F0BD0DFF87C0500684B
:102AE00010F00C0008281AD1DFF86C050068C0034C
:102AF00015D4DFF860050068800704D52069012837
:102B000001D0012092E1DFF84C05006830F0F800B8
:102B1000616950EAC100DFF83C15086034E02069C3
:102B200000281ED00120DFF84415086000F0B6FA36
:102B30000500DFF820050068800706D400F0AEFA33
:102B4000401B0328F5D3032070E1DFF80805006877
:102B500030F0F800616950EAC100DFF8F81408604D
:102B600012E00020DFF80415086000F097FA050075
:102B7000DFF8E0040068800706D500F08FFA401BFC
:102B80000328F5D3032051E1207800072CD5A06954
:102B9000002816D00120DFF8D814086000F07EFA73
:102BA0000500DFF8C4040068800706D400F076FA58
:102BB000401B0328F5D3032038E1012000F036FA4A
:102BC00012E00020DFF8A814086000F067FA0500A2
:102BD000DFF894040068800706D500F05FFA401B18
:102BE0000328F5D3032021E12078400740F1A88095
:102BF0000027DFF880040068C00010D4DFF87404F8
:102C0000006850F08050DFF86C140860DFF864044E
:102C1000006810F080500090009801200700DFF855
:102C200058040068C00516D4DFF84C04006850F45E
:102C30008070DFF84414086000F030FA0500DFF817
:102C400038040068C00506D400F028FA401B652847
:102C5000F5D30320EAE0E068012808D1DFF81C047E
:102C6000006850F00100DFF81414086037E0E068F5
:102C7000002810D1DFF80404006840084000DFF8A5
:102C8000FC130860DFF8F403006830F00400DFF89C
:102C9000EC13086023E0E068052810D1DFF8DC03BE
:102CA000006850F00400DFF8D4130860DFF8CC03AC
:102CB000006850F00100DFF8C41308600FE0DFF88F
:102CC000BC03006840084000DFF8B0130860DFF87C
:102CD000AC03006830F00400DFF8A0130860E0687F
:102CE000002810D000F0DAF90500DFF89003006842
:102CF000800719D400F0D2F9401B41F28931884293
:102D0000F3D3032092E000F0C9F90500DFF86C036B
:102D10000068800708D500F0C1F9401B41F28931F5
:102D20008842F3D3032081E03800C0B2012807D1E4
:102D3000DFF84003006830F08050DFF83813086097
:102D4000E069002871D0DFF81003006810F00C0073
:102D5000082855D0E06902283FD10020DFF8201371
:102D6000086000F09BF90700DFF8E80200688001C6
:102D700006D500F093F9C01B0328F5D3032055E0D6
:102D8000206AB0F5803F09D1DFF8CC02016831F448
:102D90000031A0680143DFF8C0020160DFF8B8022B
:102DA000016831F47411206A0143606A0143DFF85D
:102DB000A80201600120DFF8C812086000F06EF977
:102DC0000500DFF89002006880012ED400F066F95B
:102DD000401B0328F5D3032028E00020DFF8A012D1
:102DE000086000F05BF90500DFF868020068800108
:102DF0001BD500F053F9401B0328F5D3032015E041
:102E0000E069012801D1012010E0DFF84C020068E0
:102E1000060016F48030216A884204D116F470103E
:102E2000616A884201D0012000E00020F2BD70B547
:102E300004000D00002C01D10120AFE0DFF84402B6
:102E4000006810F00700A84211D2DFF838020068CD
:102E5000C008C0002843DFF82C120860DFF8240205
:102E6000006810F00700A84201D0012096E0207809
:102E700080071FD52078400707D5DFF8DC01006800
:102E800050F4E060DFF8D01108602078000707D523
:102E9000DFF8C401006850F46050DFF8BC1108602E
:102EA000DFF8B401016831F0F001A0680143DFF8F8
:102EB000A80101602078C00734D56068012806D1D8
:102EC000DFF890010068800310D4012066E060689C
:102ED000022805D15F480068800107D401205DE029
:102EE0005C480068800701D4012057E05A48016817
:102EF00089088900606801435748016000F0CEF8F6
:102F000006005548006810F00C006168B0EB810FB6
:102F100008D000F0C3F8801B41F289318842F0D319
:102F200003203BE05748006810F0070085420ED2AE
:102F300054480068C008C0002843524908605148FE
:102F4000006810F00700A84201D0012026E0207898
:102F5000400707D54048016831F4E061E06801436B
:102F60003D4801602078000708D53B48006830F4F0
:102F70006050216950EAC1003749086000F00FF83D
:102F80004149354A1268C2F30312895CC84034498A
:102F900008603448006800F087F8002070BD78B5FC
:102FA00085B001A83949102200F0A4F838480088FB
:102FB000ADF8000000200021002200230024264D4F
:102FC0002D6815F00C06042E02D0082E02D01CE04D
:102FD00022481BE001A8C5F38346805D0300E80397
:102FE0000DD568461C4E3668C6F34046805D01002C
:102FF0001A4800FB03F0B0FBF1F0020003E02548A3
:1030000000FB03F00200100000E0144806B070BDA1
:1030100013480068704780B5FFF7FAFF1E490E4A53
:103020001268C2F3C222895CC84002BD81B00C495B
:103030000968C9084FF47A72B1FBF2F101FB00F1A3
:10304000009100BF00994A1E00920029F9D101B0F9
:1030500070470000001002400410024000127A0085
:103060001400002010000020241002400000424202
:10307000800442421C1002400070004020100240B8
:1030800060004242002002403073000810730008C4
:103090006E0D000800093D005073000801480068EB
:1030A000704700BFC81D002010B504004FF47A70AF
:1030B0000D490978B0FBF1F00C490968B1FBF0F05B
:1030C00000F0FEF8002801D001200CE0102C09D2FD
:1030D000002221005FF0FF3000F0D6F804480460C1
:1030E000002000E0012010BD2D0100201400002070
:1030F00010000020103A07D330B4B1E83810103A6D
:10310000A0E83810F9D230BC530724BFB1E808104A
:10311000A0E8081044BF51F8043B40F8043BD20734
:1031200024BF31F8022B20F8022B44BF0B78037028
:103130007047121F17D35B0009D151F8043B20F8E8
:10314000023B1B0C121F20F8023BF6D20BE051F899
:10315000043B00F8013B1B0A20F8023B1B0C121F2A
:1031600000F8013BF3D238BF121D521E24BF11F8E4
:10317000013B00F8013BF8D87047000010F007034E
:1031800056490A684FF6FF010A4052EA03225449A1
:103190000A4352490A60704750480068C0F3022051
:1031A0007047010049B2002909D4012210F01F0123
:1031B0008A404C4903005BB25B0941F82320704709
:1031C000010049B2002909D4012210F01F018A40F0
:1031D000454903005BB25B0941F82320704710B4F6
:1031E000020052B2002A05D40A01404B040064B226
:1031F0001A5508E00A013E4B040064B214F00F04B3
:10320000234403F8042C10BC704770B4030013F07F
:103210000704D4F10700052801D3042001E0D4F10C
:103220000700251D072D01D2002500E0E51E01261F
:1032300016FA00F0401E0140A940012010FA05F5E1
:103240006D1E2A401143080070BC704710B5040081
:10325000601EB0F1807F01D301200EE0601E254981
:1032600008600F215FF0FF30FFF7B9FF002022490F
:103270000860072021490860002010BD10B5040037
:103280002000FFF77BFF10BD2DE9F04104000D0089
:1032900016000027FFF780FF8046320029004046D5
:1032A000FFF7B3FF0100200040B2FFF798FFBDE831
:1032B000F08110B50400200040B2FFF772FF10BD8E
:1032C00010B504002000FFF7C1FF10BD10B50400C9
:1032D000200040B2FFF774FF10BD00000CED00E0CD
:1032E0000000FA0500E100E080E200E000E400E018
:1032F00018ED00E014E000E018E000E010E000E06D
:103300002DE9F04104005FF00008002500260027A9
:10331000002C01D1012093E0A068002801D0207D7D
:103320000028A06A002807D10020E062002084F86D
:103330002400200000F055FB200000F0EBFAA16A09
:10334000C90676D40100C9B2002972D1A16A31F44C
:10335000885151F00201A16261680E43E1690E4398
:10336000217B56EA4106A168B1F5807F02D0A168B1
:10337000012902D14FF4807100E000210D43217D2D
:10338000012911D1217B002906D1A169491E55EAE5
:10339000413555F4006507E0A16A51F02001A162B2
:1033A000E16A51F00101E1622168496831F4694143
:1033B00029432268516021688A68DFF838150A407D
:1033C000324321688A60A168B1F5807F02D0A1688C
:1033D000012902D14FF4807100E00021B1F5807F16
:1033E00003D12169491E09050F002168C96A31F41A
:1033F000700139432268D16221688A68DFF8F814C5
:103400000A40B24208D10021E162A16A31F0020112
:1034100051F00101A16212E0A16A31F0020151F004
:103420001001A162E16A51F00101E162012108008D
:1034300005E0A16A51F01001A16201210800C0B2AB
:10344000BDE8F0812DE9F04104000D0016000027D1
:103450002068DFF8B014884204D02068DFF89C149C
:10346000884205D1DFF89804006810F4702000E06D
:103470000020002840F09B8094F82400012801D10E
:10348000022098E0012084F82400200000F0F9F9DF
:1034900080464046C0B2002840F08580A16ADFF82F
:1034A0006C04014051F48071A1622068DFF84C1473
:1034B000884209D1DFF84804006810F4702F01D168
:1034C000012002E0002000E0012000280ED0A06AC8
:1034D00030F48010A06220684068400523D5A06ABF
:1034E00030F4005050F48050A0621CE0A06A50F408
:1034F0008010A0622068DFF80C14884204D0206895
:10350000DFF8F813884205D1DFF8F403006810F4FF
:10351000806000E00020002805D0A06A30F4005050
:1035200050F48050A062A06AC00404D5E06A30F074
:103530000600E06201E00020E062002084F8240040
:103540000FF21D40216A88620FF26940216AC86249
:103550000FF27140216A08637FF002002168086061
:103560002068806850F480702168886033002A00E9
:10357000206810F14C01206A00F067FA206880682A
:1035800010F46020B0F5602F06D12068806850F4F8
:10359000A000216888600CE02068806850F48010EA
:1035A0002168886005E0002084F8240001E05FF0D5
:1035B00001084046C0B2BDE8F08170B504000026A5
:1035C00094F82400012801D102202DE0012084F884
:1035D0002400200000F09EF905002800C0B2002859
:1035E0001DD12068806830F4807021688860206A6E
:1035F00090F82100022812D1206A00F072FA05002A
:103600002800C0B2002806D1A06A30F4885050F0DB
:103610000100A06203E0A06A50F04000A062002018
:1036200084F824002800C0B270BD10B504002068E2
:10363000406880062CD520680068800728D5A06ADD
:10364000C00603D4A06A50F40070A06220688068AD
:1036500010F46020B0F5602F13D1207B002810D12A
:103660002068406830F0200021684860A06A30F48B
:103670008070A062A06AC00403D4A06A50F0010068
:10368000A062200000F0F6FC7FF0120021680860C4
:1036900020684068000637D520680068400733D5A9
:1036A000A06AC00603D4A06A50F40050A06220684B
:1036B000806810F4E040B0F5E04F0DD0206840681D
:1036C00040051AD42068806810F46020B0F5602F9F
:1036D00013D1207B002810D12068406830F0800092
:1036E00021684860A06A30F48050A062A06AC005DA
:1036F00003D4A06A50F00100A062200000F018FD81
:103700007FF00C00216808602068406840060ED5F4
:1037100020680068C0070AD5A06A50F48030A06213
:10372000200000F006FD7FF001002168086010BD58
:1037300078B4020000230020009092F824000128B1
:1037400001D102209BE0012082F82400486807286C
:1037500012D21068446B1F254868461E0520464358
:10376000B540AC430D684868461E05204643B54049
:103770002C431068446329E048680D2812D2106871
:10378000046B1F254868C61F05204643B540AC435F
:103790000D684868C61F05204643B5402C43106895
:1037A000046313E01068C46A1F254868B0F10D0671
:1037B00005204643B540AC430D684868B0F10D069E
:1037C00005204643B5402C431068C46208680A28A7
:1037D00014D31068C46807250868B0F10A060320EE
:1037E0004643B540AC438D680868B0F10A06032033
:1037F0004643B5402C431068C4600FE0106804696C
:1038000007250E6803204643B540AC438D680E681B
:1038100003204643B5402C43106804610868102813
:1038200002D00868112825D11068364CA0421BD15F
:103830001068806800021DD41068806850F4000091
:103840001468A0600868102814D12F480068304C14
:10385000B0FBF4F40A20444300940098002809D0F7
:103860000098401E0090F8E7906A50F020009062A7
:1038700001200300002082F824001800C0B272BCAE
:10388000704738B50400002500200090206880684B
:10389000C0072BD42068806850F001002168886040
:1038A000194800681A49B0FBF1F000900098002810
:1038B00003D00098401E0090F8E7FFF7EFFB0500EB
:1038C00020688068C00711D4FFF7E8FB401B03287D
:1038D000F6D3A06A50F01000A062E06A50F0010038
:1038E000E062002084F82400012000E0002032BDC6
:1038F00000000000FDF7E1FFFE0E1FFF0028014061
:10390000042401400024014014000020FEF1FFFFC8
:1039100040420F0038B50400002520688068C007C9
:103920001BD5206880684008400021688860FFF748
:10393000B5FB050020688068C0070ED5FFF7AEFB19
:10394000401B0328F6D3A06A50F01000A062E06A82
:1039500050F00100E062012000E0002032BD0000D4
:1039600038B50400656AA86A10F0500F1CD1A86A27
:1039700050F40070A8622868806810F46020B0F5E8
:10398000602F0DD1287B00280AD1A86A30F48070FE
:10399000A862A86AC00403D4A86A50F00100A86213
:1039A000280000F067FB03E02000296A096B8847C4
:1039B00031BD000038B50400656A280000F0BAFB8C
:1039C00031BD000038B50400656AA86A50F04000B7
:1039D000A862E86A50F00400E862280000F0ABFB3F
:1039E00031BD704701000022002901D101202BE0E8
:1039F0000B68DFF8A802C3181420B3FBF0F08000B6
:103A00000864DFF89C02C863022081F8210008687E
:103A100003686FF30D134868034388680343C8685D
:103A20000343086903434869034388690343C8693A
:103A300003430868036000208863012081F82100A7
:103A4000002081F82000002070472DE9F04104009B
:103A50000D0016001F005FF0000894F820000128F8
:103A600001D102203BE0012084F8200094F82100DD
:103A700001282DD1022084F821000020A0632068B5
:103A8000006840084000216808603B0032002900BF
:103A9000200000F043F9E06A002806D020680068A2
:103AA00050F00E00216808600BE02068006830F0DC
:103AB0000400216808602068006850F00A0021684E
:103AC00008602068006850F001002168086004E088
:103AD000002084F82000022080464046C0B2BDE8A5
:103AE000F0810100002291F82100022806D0042074
:103AF0008863002081F82000012018E00868006831
:103B000030F00E000B68186008680068400840003C
:103B10000B6818600123086C8340C86B4360012068
:103B200081F82100002081F820001000C0B2704709
:103B300070B50400E06B0568206806680421206CFD
:103B400081400D423ED070073CD520680068800659
:103B500005D42068006830F00400216808602068FF
:103B60005049884201D1042023E020684E49884210
:103B700001D140201DE020684C49884202D14FF419
:103B8000806016E020684A49884202D14FF48040A4
:103B90000FE020684749884202D15FF4802008E0A6
:103BA00020684549884202D15FF4800001E05FF05F
:103BB000806042490860E06A00286DD02000E16A18
:103BC000884769E00221206C81400D4244D0B00753
:103BD00042D520680068800608D42068006830F06C
:103BE0000A0021680860012084F8210020682D491E
:103BF000884201D1022023E020682B49884201D16C
:103C000020201DE020682949884202D14FF400702D
:103C100016E020682649884202D14FF400500FE098
:103C200020682449884202D15FF4003008E020680F
:103C30002149884202D15FF4001001E05FF000707A
:103C40001E490860002084F82000A06A002823D0C4
:103C50002000A16A88471FE00821206C81400D42A6
:103C60001AD0300718D52068006830F00E0021689F
:103C700008600121206C8140E06B41600120A0635D
:103C8000012084F82100002084F82000206B002807
:103C900002D02000216B884770BD0000F8FFFDBFF7
:103CA00000000240080002401C00024030000240B8
:103CB00044000240580002406C00024004000240F0
:103CC00010B40300002493F82000012801D1022041
:103CD00022E0012083F8200093F82100012814D16C
:103CE0000800C0B2002805D0022807D004D303285A
:103CF00006D007E09A620AE0DA6208E01A6306E09A
:103D00005A6304E00120040001E0012004000020C7
:103D100083F820002000C0B210BC704730B40125E9
:103D2000046CA540C46B6560046863604468102C33
:103D300004D10468A2600468E16003E00468A16043
:103D40000468E26030BC704780B500F09CF9002840
:103D500001D0012027E000F027F8002801D0012041
:103D600021E000F0E0F8002801D001201BE0DFF89E
:103D7000700300F0E1F9002801D0012013E0DFF822
:103D8000640300F088FA002801D001200BE04022F3
:103D9000DFF85413DFF84803FFF754FB002801D085
:103DA000012000E0002002BD10B58CB00020DFF83B
:103DB0003C1308701021002208AC200000F0D2FB58
:103DC0000C21002201AC200000F0CCFB10210022CD
:103DD00004AC200000F0C6FBDFF81403006850F4C8
:103DE0000070DFF80C130860DFF80403006810F4BB
:103DF000007000900098DFF8F802006850F00800AA
:103E0000DFF8EC120860DFF8E802006810F0080044
:103E100000900098012008900320099008A9DFF87D
:103E2000D40200F0D3FBDFF8D002DFF8B412086050
:103E30000020DFF8AC1248600020A949886000200B
:103E4000A74908730120A64908610020A449087504
:103E50000120A34988615FF40020A149C861A048FE
:103E6000FFF74EFA002801D001205AE00820019007
:103E7000012002900020039001A99948FFF758FC07
:103E8000002801D001204CE0022004904FF40040B3
:103E9000069004A800F0CEFC9848006850F001009D
:103EA000964908609548006810F00100009000985D
:103EB0009348944908600020924948600020914945
:103EC000886080208F49C8604FF480708D490861F8
:103ED0004FF480608B49486120208A4988614FF403
:103EE00000508849C8618748FFF77CFD002801D051
:103EF000012016E083487A4908627948814948627E
:103F0000002203210B20FFF7BFF90B20FFF7D1F9A7
:103F1000002202211220FFF7B7F91220FFF7C9F99A
:103F200000200CB010BDE0B57748006850F00200EA
:103F3000754908607448006810F00200009000980D
:103F4000724800687249B0FBF1F0401E7149088068
:103F500071486449086009206249C8606D4800885A
:103F60006049486000205F49086100205D49886021
:103F700000205C49486100205A498861594800F096
:103F800053F9002801D001200CE0202001900020EE
:103F9000029001A9534800F06DFD002801D00120D6
:103FA00000E000200EBD10B5504800780128FBD17C
:103FB00000204E4908700024200080B240280FD213
:103FC0004948210089B230F91100B0F5006000F0D5
:103FD0008FFD5249220092B241F82200641CEBE7A7
:103FE00000234F4A4D494F4800F0CBFE0024402C9F
:103FF0003ED24B4800EB84004168494850F8240009
:1040000000F04FF800F0BEFF4749FCF7B1FE00F0AA
:10401000BBFF46492200520821F812004348210004
:10402000490830F811004FF6E851884205DB0020BE
:104030003E492200520821F812003C48210049085C
:1040400030F8110037280BDB38482100490830F8D8
:104050001100373835492200520821F8120005E0D6
:10406000002032492200520821F81200A41CBEE7A9
:104070002E4810BD10B504002000FFF79EFA012065
:104080001A49087010BD80B54021264800F090FF05
:104090000100080040B2002801D0012000E000200B
:1040A00002BD70B504000D0020002100FCF760FE89
:1040B000060028002900FCF75BFE3100FCF7A0FD9C
:1040C00000F0E0FF70BD80B5402207490448FFF7CB
:1040D000B9F9002801D0012000E0002002BD000055
:1040E0006C1D0020A01C0020201C0020CF1D0020E3
:1040F00018100240000C014000240140141002403E
:1041000008000240E81C00201C100240140000209F
:1041100080380100CC1D002000040040301A00202F
:10412000301900209C1D00200000A0412C1D002003
:104130007047704770477047F8B5050000270020AA
:10414000009095F82400012801D1022069E00120A7
:1041500085F824002800FFF7DDFB06003000C0B220
:10416000002859D1A86A30F4885050F00200A862A3
:10417000022000F0E6FBDFF8AC100968B1FBF0F0BC
:10418000400000900098002803D00098401E009046
:10419000F8E72800FFF775FB2868806850F00800F2
:1041A00029688860FEF77AFF0700286880680007A2
:1041B0000FD5FEF773FFC01B0B28F6D3A86A30F0AB
:1041C000020050F01000A862002085F824000120B1
:1041D00027E02868806850F0040029688860FEF7AE
:1041E0005DFF04002868806840070FD5FEF756FF82
:1041F000001B0B28F6D3A86A30F0020050F0100024
:10420000A862002085F8240001200AE0A86A30F0A6
:10421000020050F00100A862002085F82400300060
:10422000C0B2F2BD1400002010B50400002C01D172
:1042300001202FE094F83D00002805D1002084F8EB
:104240003C00200000F058FF022084F83D00211DB2
:10425000206800F089F8012084F84600012084F8E5
:104260003E00012084F83F00012084F84000012036
:1042700084F84100012084F84200012084F84300C2
:10428000012084F84400012084F84500012084F8CE
:104290003D00002010BD010091F83D00012801D033
:1042A00001202AE0022081F83D000868DFF84C3048
:1042B00098420DD00868B0F1804F09D00868DFF847
:1042C0004030984204D00868DFF8383098420DD169
:1042D0000868806810F007000200062A0CD0086801
:1042E000006850F001000B68186005E0086800687D
:1042F00050F001000B68186000207047002C01404E
:10430000000400400008004070B504000D001600D5
:1043100094F83C00012801D1022024E0012084F817
:104320003C003000002806D0042809D008280CD012
:104330000C280FD013E02900206800F047F80EE0A9
:104340002900206800F06FF809E02900206800F0DB
:104350009CF804E02900206800F0C8F8FFE700207E
:1043600084F83C00002070BD0368724A904208D077
:10437000B0F1804F05D0704A904202D06F4A90420F
:1043800003D133F070034A6813436A4A904208D05D
:10439000B0F1804F05D0684A904202D0674A9042FF
:1043A00003D133F44073CA68134333F080034A697E
:1043B000134303608A68C2620A6882625D4A90425F
:1043C00001D10A69026301224261704730B4026A76
:1043D000520852000262046A4568836933F0700330
:1043E0009B089B000A68134334F002048A68144354
:1043F000504A904205D134F00804CA68144334F09E
:1044000004044C4A904207D135F4807535F40075A8
:104410004A6915438A691543456083614A68426366
:10442000046230BC704730B4026A32F0100202629B
:10443000036A4468826932F4E04232F440720D68E3
:1044400052EA052233F020038D6853EA0513394DF3
:10445000A84206D133F08003CD6853EA051333F048
:104460004003344DA84209D134F4806434F400642C
:104470004D6954EA85048D6954EA8504446082617B
:104480004D688563036230BC704730B4026A32F411
:1044900080720262046A4568C36933F070039B0846
:1044A0009B000A68134334F400748A6854EA0224B7
:1044B000204A904206D134F40064CA6854EA0224C7
:1044C00034F480641B4A904209D135F4805535F4A8
:1044D00000554A6955EA02158A6955EA0215456090
:1044E000C3614A68C263046230BC704730B4026A78
:1044F00032F480520262036A4468C26932F4E042D4
:1045000032F440720D6852EA052233F400538D688C
:1045100053EA0533074DA84204D134F480444D6971
:1045200054EA85144460C2614D680564036230BC7E
:1045300070470000002C01400004004000080040CB
:1045400030B4012411F01F0314FA03F3046A9C43EE
:104550000462046A11F01F0512FA05F52C43046287
:1045600030BC704762F30F2262F31F42401810F014
:10457000030308D0C91A1FD3DB0748BF00F8012D79
:1045800028BF20F8022D130030B414461546103908
:1045900028BF20E93C00FAD8490728BF20E90C00D1
:1045A00048BF40F8042D890028BF20F8022D48BFDD
:1045B00000F8012D30BC7047C91818BF00F8012D54
:1045C000CB0728BF00F8012D704700002DE9F84304
:1045D00002005FF0000E5FF00008086830FA0EF08D
:1045E000002800F00481012010FA0EF00300086892
:1045F000184004009C4240F0F7804868002831D001
:10460000012820D0022825D003283CD011281DD015
:10461000122823D0DFF8DCC1604523D0DFF8D8C1F1
:1046200060451FD0DFF8D4C160451BD0DFF8D0C192
:10463000604517D0DFF8CCC1604513D0DFF8C8C1A2
:1046400060450FD022E0C86880461FE0C868001DA2
:1046500080461BE0C8680830804617E0C8680C3008
:10466000804613E08868002802D10420804609E0D3
:104670008868012803D108208046136102E00820E1
:104680008046536102E000208046FFE7B4F5807F5A
:1046900001D2160000E0161DB4F5807F02D25FEA59
:1046A0008E0702E0BEF10807BF00D6F800C00F2059
:1046B000B8403CEA000C18FA07F050EA0C0CC6F8B7
:1046C00000C04868C00040F18F805048006850F03A
:1046D0000100DFF838C1CCF800004C48006810F049
:1046E0000100009000984A48F4465FEA9C0C50F89C
:1046F0002CC05FF00F091EF00300C0B2800019FA51
:1047000000F93CEA090C4348824202D15FF00009FB
:1047100013E04148824202D15FF001090DE03F48B9
:10472000824202D15FF0020907E03D48824202D195
:104730005FF0030901E05FF0040965461EF0030025
:10474000C0B2800019FA00F959EA05053048F4466C
:104750005FEA9C0C40F82C504868C00307D53148EC
:1047600000682043DFF8BCC0CCF8000006E02D480C
:104770000068A043DFF8ACC0CCF8000048688003B4
:1047800007D5294800682043DFF89CC0CCF800001A
:1047900006E025480068A043DFF88CC0CCF8000094
:1047A0004868C00207D5214800682043DFF87CC074
:1047B000CCF8000006E01D480068A043DFF86CC09C
:1047C000CCF800004868800207D5194800682043EB
:1047D000DFF85CC0CCF8000006E015480068A04394
:1047E000DFF84CC0CCF800001EF1010EF5E6BDE884
:1047F000F1830000000011100000121000002110D1
:104800000000221000003110000032101810024089
:104810000800014000080140000C01400010014068
:104820000014014000040140040401400804014058
:104830000C040140F8B50500002600242878C007C4
:1048400067D5002780480068C0000DD47E48006806
:1048500050F080507C4908607B48006810F0805020
:10486000009000980120070078480068C00513D424
:104870007648006850F4807074490860FEF70EFCBA
:10488000060072480068C00506D4FEF707FC801BCE
:104890006528F6D3032053E06D48006810F440709B
:1048A0000400002C23D0686810F4407084421ED0AD
:1048B0006748006830F440700400012065490860D2
:1048C00000206449086062480460E0070FD5FEF7E5
:1048D000E5FB06005E480068800708D4FEF7DEFBB3
:1048E000801B41F289318842F4D3032028E05848E4
:1048F000016831F44071686801435548016038002F
:10490000C0B2012805D15048006830F080504E49AF
:1049100008602878800707D54F48016831F4404186
:10492000A86801434C4801602878C00607D54A486A
:10493000016831F48001E8680143474801600020C4
:10494000F2BD2DE9F04385B0040001A843491022CF
:10495000FEF7D0FB42480088ADF800000025002695
:1049600000275FF000085FF000092000012832D026
:10497000022858D0102862D137480068804639484C
:104980000068C00126D501A8C8F38341405C070038
:104990005FEAC8300FD568462F490968C1F3404126
:1049A000405C05005FEAC83009D52F48B0FBF5F040
:1049B0007843060003E02D4800FB07F00600264878
:1049C0000068400201D5B14604E070000321B0FB4D
:1049D000F1F0814633E01E480068804640F2023024
:1049E00010EA0800B0F5817F03D14FF40040814602
:1049F00018E018F44070B0F5007F07D11C4800683B
:104A0000800703D549F6404081460BE018F440701A
:104A1000B0F5407F06D113480068800302D54FF2FD
:104A2000244081460BE0FEF7F6FA0B490968C1F312
:104A30008131491C4900B0FBF1F08146FFE748464F
:104A400005B0BDE8F08300001C100240007000407B
:104A5000201002404004424204100240207300082B
:104A6000921800080010024000127A0000093D0070
:104A70002410024030B4020092F83C00012801D119
:104A800002202CE0012082F83C00022082F83D0048
:104A9000106843681068846833F070030868034343
:104AA0001068436010680F4DA8420BD01068B0F139
:104AB000804F07D010680C4DA84203D010680B4DF2
:104AC000A84205D134F0800448680443106884602B
:104AD000012082F83D00002082F83C00002030BC1C
:104AE00070470000002C0140000400400008004016
:104AF00010F0004C68B148BF4042B0FA80F18840E5
:104B0000D1F19D014CEAC15C010671F100414CEB11
:104B1000102070472DE9F34F8BB090460B984069F9
:104B2000DDF830A00C9905910B990C88641E05994D
:104B30000D68059949680091DAF800100291DAF8D9
:104B40000410019101680491001D0168039110F1A6
:104B5000040B02982900FCF753F80600009901980D
:104B6000FCF74EF8070030003900FCF749F85FF019
:104B70007C51FCF7FDF8C8F8000018F1040830007B
:104B80003900FCF7ADF85FF07C51FCF7F1F8C8F89C
:104B9000000018F104080C9800EBC4091AF1080A87
:104BA000D9F804000090D9F800000500DAF80000F8
:104BB0000290DAF804000190DBF8000004901BF189
:104BC00004000168039110F1040B28000299FCF71E
:104BD00087F8060000980199FCF712F8070004987E
:104BE0003100FCF7C5F8099003983100FCF7C0F8D4
:104BF000089004983900FCF7BBF807900398390037
:104C0000FCF7B6F8069002982900FBF7F9FF09991E
:104C1000FBF7F6FF0699FBF7F3FF5FF07C51FCF71B
:104C2000A7F8C8F8000018F1040801980099FCF7EB
:104C300057F80899FBF7E4FF0799FCF751F85FF084
:104C40007C51FCF795F8C8F8000018F104081AF137
:104C5000080AB9F10809641E002CA1D10DB0BDE805
:104C6000F08F2DE9F14F8CB00D0090460C98406903
:104C7000AA460A950C990C88641EDAF80060DAF8E6
:104C8000047010F1080B30003900FBF7B9FF5FF03A
:104C90007C51FCF76DF8C8F8000018F104083000EA
:104CA0003900FCF71DF85FF07C51FCF761F8C8F89B
:104CB000000018F1040805EBC4091AF1080A002CD9
:104CC0005CD0D9F804000290D9F800000390DAF81B
:104CD00000000600DAF804000700DBF80000059089
:104CE0001BF104000168049110F1040B30000399DA
:104CF000FBF7F6FF019002983900FBF781FF009067
:104D000005980199FCF734F8099004980099FCF78C
:104D10002FF8089004980199FCF72AF80790059855
:104D20000099FCF725F8069003983100FBF768FF1F
:104D30000999FBF7D5FF0899FBF7D2FF5FF07C518B
:104D4000FCF716F8C8F8000018F1040838000299BA
:104D5000FBF7C6FF0799FBF753FF0699FBF7C0FF68
:104D60005FF07C51FCF704F8C8F8000018F1040863
:104D70001AF1080AB9F10809641EA0E70DB0BDE8F0
:104D8000F08F2DE9F04104000D0016001F00A04631
:104D9000208A022190FBF1F0A8F800003800C0B290
:104DA00000280CD0320029002000FFF75AFF012311
:104DB0003A00D2B231004046FBF78AFE0BE00123F5
:104DC0003A00D2B229004046FBF782FE32002900A9
:104DD0002000FFF79FFEBDE8F0810000F8B50C460B
:104DE00041000916491C09D143001916491C02D17A
:104DF0001B0240F0A580C20F0BD1F2BD694600F046
:104E00007DF905462946480001D14E48F2BDC80F3C
:104E100004D0AFF300806FF00040F2BD002948BF1E
:104E2000C1F100414848002848BFC0F1004081421C
:104E300007DA0121284600F081F905460098401E56
:104E4000009029464148FBF7DBFE06464FF07E50B6
:104E50002946FBF7D5FE01463046FCF71BFD05460B
:104E60002946FBF785FF074639483946FBF780FF9F
:104E70003849FBF7C5FE3946FBF77AFF3649FBF7A1
:104E8000BFFE3946FBF774FF01463046FBF728FFAB
:104E90002946FBF76DFF07460098FFF729FE002C17
:104EA000054611D12D482946FBF762FF3946FBF72D
:104EB000A7FE01463046FBF713FF04462848294663
:104EC000FBF756FF214639E023DD26483146FBF744
:104ED0004FFF044624483146FBF74AFF0646234865
:104EE0003946FBF745FF074621482946FBF740FFB7
:104EF0003946FBF785FE01463046FBF7F1FE2146B9
:104F0000FBF77EFE04461B482946FBF731FF21468E
:104F100014E019483146FBF72BFF04461748314689
:104F2000FBF726FF064616483946FBF721FF3146B8
:104F3000FBF766FE2146FBF763FE2946FBF760FEA2
:104F4000F2BD0000000080FFF304353F000080BF89
:104F50001502993E11AECC3EC0AA2A3FE8E8FBB349
:104F60001672313FD85BDE3E2837A932D95BDE3E70
:104F7000F43EA1B398209A3E3BAAB83F6070A53298
:104F80003BAAB8BF012129E7C0F3C751D1F19E0167
:104F900008DD020242F00042CA4002EBE07282EAFF
:104FA000E07070477FEAE07080F0004070470000DA
:104FB00030B40200002013000C00A4B2022594FBC0
:104FC000F5F41C8011821C88102C2DD0202C22D0AE
:104FD000402C17D0802C0CD0B4F5807F2DD14FF40D
:104FE000DC749C81184C9C60184C5C60184C5461BB
:104FF00026E0D0249C81174C9C60174C5C60174CB9
:1050000054611DE038249C81154C9C60154C5C60FB
:10501000154C546114E030249C81144C9C60144C59
:105020005C60144C54610BE014249C81124C9C6015
:10503000124C5C60124C546102E05FF0FF342000BF
:1050400040B230BC704700BFF8620008AC190008DD
:10505000AC210008686A0008F85A0008F85E0008E9
:10506000787000086866000868680008E870000842
:10507000086C0008086D0008CC710008786F000803
:10508000F86F00084FF40002C10D23D0FF2929D288
:1050900030EAC15010437D31490828BF0018800014
:1050A0004FF0C073B0F1906006D452080ED2C01A0F
:1050B0009B18D2EB4000F8D5520806D2C0189B1AB4
:1050C000D2EB4000F1D55208F8D35B1E580850EBE4
:1050D000C1507047B0FA80F108398840F9D0D1F159
:1050E0000101D8E7FF2914BFC042F2E7D042F0D84F
:1050F000C843AFF300807047704700000B46F4468A
:1051000000F002F819606047C0F3C75129B1FF29C8
:1051100012D07E39A0EBC1507047C0420DD000F0D4
:1051200000424002B0FA80F188407E31494242EAB2
:10513000102000F17A507047002170470942C0F3F7
:10514000C75208D432B3FF2A35D05218FF2A33D2BF
:1051500000EBC150704749425AB1FF2A2BD08B1A3D
:105160003CBFA0EBC1507047591C20EAC25040F42C
:10517000000002181FD000F000401A2920D8491C56
:10518000C1F1200322FA01F19A4072F10043484133
:10519000B2B97047C0420ED000F000425040B0FAA1
:1051A00080F3083B994204D998401043C91A4A1C1D
:1051B000CCE788401043704700F0004040F0FF40CB
:1051C000AFF300807047000010B400210800C0B2A7
:1051D000102859D20022DFF814340C00E4B20F205A
:1051E000444303EB040002720022DFF800340C0099
:1051F000E4B20F20444303EB0400A0F80B2000228C
:10520000DFF8E8330C00E4B20F20444303EB040062
:10521000C2710022DFF8D4330C00E4B20F20444303
:1052200003EB0400A0F809200022DFF8C0330C00D3
:10523000E4B20F20444303EB040082710022DFF844
:10524000AC330C00E4B20F20444303EB04000271C2
:10525000DFF89C03DFF89C23127912F0030250F868
:105260002220DFF888330C00E4B20F2044431A51A7
:105270000122DFF878330C00E4B20F20444303EB43
:1052800004004271491CA1E7002010BC70477CB5A6
:1052900004000D00DFF854132200D2B20F20424365
:1052A00001EB0200417B491CDFF840232300DBB205
:1052B0000F20434302EB03004173DFF83013220059
:1052C000D2B20F20424301EB0200817B491CDFF880
:1052D0001C232300DBB20F20434302EB0300817346
:1052E0002800C0B2082880F06E81C0492200D2B2E6
:1052F0000F20424301EB02004079002812D0072121
:10530000BA4A2300DBB20F20434302EB0300817152
:105310000021B64A2300DBB20F20434302EB030017
:10532000417107E0B1492200D2B20F20424301EBA4
:1053300002008571AD492200D2B20F20424301EB39
:105340000200017AA94A2300DBB20F20434302EB9B
:105350000300807981421AD2A4492200D2B20F20E0
:10536000424301EB02008179A04A2300DBB20F2007
:10537000434302EB0300017206219C4A2300DBB287
:105380000F20434302EB0300A0F80B1051E09749B4
:105390002200D2B20F20424301EB0200B0F80B0012
:1053A000002813D091492200D2B20F20424301EBD2
:1053B0000200B0F80B00411E8C4A2300DBB20F2024
:1053C000434302EB0300A0F80B1032E087492200B0
:1053D000D2B20F20424301EB0200007A002828D00D
:1053E00082492200D2B20F20424301EB0200407BEF
:1053F000032190FBF1F201FB1200002819D17B4937
:105400002200D2B20F20424301EB0200007A411E7B
:10541000764A2300DBB20F20434302EB0300017204
:105420000021724A2300DBB20F20434302EB03004A
:1054300041736E492200D2B20F20424301EB0200B9
:10544000017A6A4A2300DBB20F20434302EB0300D8
:10545000C07981421AD365492200D2B20F2042435B
:1054600001EB0200017A614A2300DBB20F204343C3
:1054700002EB0300C1710C215C4A2300DBB20F2058
:10548000434302EB0300A0F8091051E05749220002
:10549000D2B20F20424301EB0200B0F8090000280D
:1054A00013D052492200D2B20F20424301EB020036
:1054B000B0F80900411E4D4A2300DBB20F204343E0
:1054C00002EB0300A0F8091032E048492200D2B2F2
:1054D0000F20424301EB0200C079002828D0434945
:1054E0002200D2B20F20424301EB0200807B0A214E
:1054F00090FBF1F201FB1200002819D13B49220078
:10550000D2B20F20424301EB0200C079411E374A5C
:105510002300DBB20F20434302EB0300C1710021E3
:10552000324A2300DBB20F20434302EB03008173B6
:10553000002631002D4A2300DBB20F20434302EB4B
:105540000300007AC9B281422DD228492200D2B28A
:105550000F20424389583200D2B20320424301EB6C
:1055600002008078009021492200D2B20F204243ED
:1055700089583200D2B20320424301EB0200437843
:105580001A492200D2B20F20424389583200D2B2C7
:10559000032042438A5C3100C9B22000C0B200F04F
:1055A0002DF8761CC5E7002000900023FF220F494C
:1055B0002600F6B20F20464301EB0600C179200019
:1055C000C0B200F01BF873BD80B50100112901D3F2
:1055D000072009E00800FCF74FF907490968FBF7C5
:1055E000C7FBFFF7D1FCC0B202BD0000301B00209A
:1055F00000000020B41D0020587300082DE9F84376
:1056000080460D0016001F00089C4046C0B20828C6
:1056100016DBB8F10808EDB25FEAC50919F1070910
:10562000B9EB08092000C0B200903B00DBB23200A9
:10563000D2B24946C9B289B2012000F0FDF913E0A7
:10564000EDB25FEAC50919F10709B9EB08092000B5
:10565000C0B200903B00DBB23200D2B24946C9B2C0
:1056600089B2002000F0E8F9BDE8F1832DE9F041AE
:1056700090B0DFF85484D8F8FC0F40F00400C8F86C
:10568000FC0FD8F8FC0F00F00400009000980320F5
:1056900000900120019003200390002002906946B1
:1056A000DFF82804FEF792FFD8F8F80F40F0010069
:1056B000C8F8F80FD8F8F80F00F001000090009833
:1056C000DFF80C44C4F80080102060600020A06067
:1056D000E060A0614FF4807626614FF480676761D7
:1056E0004FF40055E5612046FEF77CF9002840F0B4
:1056F0008C8008F13C0060641020A0640020E0640D
:10570000802020650020E0656665A765256604F1B8
:105710004400FEF767F9002877D108F16400C4F867
:1057200088001020C4F88C000020C4F89000C4F851
:105730009400C4F8A000C4F89860C4F89C70C4F841
:10574000A45004F18800FEF74DF900285DD10FF256
:105750002122002104F18800FEF7B2FA0FF28D2217
:10576000022104F18800FEF7ABFA0122002111208A
:10577000FDF78AFD1120FDF79CFDD648016841F038
:1057800001010160006800F00100009000984FF0F6
:105790008040C4F8CC001D20C4F8D800CE48006872
:1057A000CE49B0FBF1F0401E80B2C4F8D00000201A
:1057B000C4F8DC00C4F8D40004F1CC00FEF734FDDA
:1057C00018BB08900A9008200990002208A904F14B
:1057D000CC00FEF799FDC0B901900390152002900E
:1057E000042201A904F1CC00FEF78EFD68B9022263
:1057F00000211C20FDF748FD1C20FDF75AFD042068
:1058000084F8140110B0BDE8F081012084F814017F
:1058100010B0BDE8F081000070B5AD4C94F81401F3
:105820000428FDD1022084F814014FF080411D208E
:10583000C8620122206C02FA00F0E36B5860236812
:105840004FF440655D606068102803D1A4489860FB
:10585000A7A002E0A6A09860A148D860D4F8840070
:1058600002FA00F0D4F880607060666C7560A06C1D
:10587000102803D19A48B0609A4802E09948B06075
:105880009748F060D4F8C8008240D4F8C400426061
:10589000D4F888004560D4F88C20102A04D1904AAE
:1058A000826000BF93A202E092A282608C4AC26032
:1058B0008D4AF02515604FF4702515604FF0706526
:1058C0001560026842F00E0202601A6842F001029E
:1058D0001A60326842F001023260026842F001024E
:1058E000026000200861D4F8CC00C16841F48071E6
:1058F000C160C16841F40071C160C16841F4806158
:10590000C160012200214FF08040FEF719FE012204
:1059100004214FF08040FEF713FED4F8CC001D2187
:105920004162016841F00101016070BD6F48FEF7FE
:10593000FFB800B581B01C20FDF7C8FC6448D0F862
:10594000CC100A6A41F211131A4202BF0A6A40F2ED
:1059500044431A4203D10A68520852000A60CA68D6
:1059600052085200CA60042180F8141101B000BD31
:1059700010B51120FDF7AAFC554C206801684908B4
:1059800049000160606C0168490849000160D4F871
:1059900088000168490849000160D4F8CC00C1685A
:1059A00021F48071C160C16821F40071C160C168D7
:1059B00021F48061C160002200214FF08040FEF799
:1059C000BFFD002204214FF08040FEF7B9FD4FF0EB
:1059D000804040F2DC51C16200214162D4F8CC0029
:1059E000C16841F00101C16010BD0000FEE7000088
:1059F0002DE93000364890F814010428FAD100222D
:105A0000384B4021082001249440E4431D88254060
:105A10001D801D8A25401D821D8C2C401C849B1CD2
:105A2000401EF0D12033491EECD1521CD0B20228C6
:105A3000E6D330BC70470000022800D37047F0B5B1
:105A4000402940D2224C94F81441042CFAD1059CF0
:105A500012091B0924090025224E01EB4107F90018
:105A600006EB410101268640F6430F8837400F8040
:105A7000B1F810C006EA0C0CA1F810C0B1F820E093
:105A800006EA0E060E8403FA05FE4FEAEE1E0EF03D
:105A9000010E0EFA00FE4EEA07070F8002FA05F724
:105AA000FF1107F00107874047EA0C070F8204FA4D
:105AB00005F7FF1107F0010787403E430E846D1C78
:105AC000891C082DCEDBF0BD1C00024000080140FF
:105AD000180000201C1002401400002000366E0147
