:020000040800F2
:10000000C0210020E16400089563000897630008A0
:10001000996300089B6300089D63000800000000CE
:100020000000000000000000000000009F630008C6
:10003000A163000800000000A3630008A563000896
:10004000F9640008FD640008016500080565000802
:10005000096500080D6500081165000815650008B0
:10006000196500081D65000821650008AF630008D8
:1000700025650008296500082D6500083165000820
:100080003565000879490008A9630008396500084A
:100090003D650008416500084565000849650008A0
:1000A0004D65000851650008556500085965000850
:1000B0007F4900085D650008616500086565000806
:1000C000696500086D6500087165000875650008C0
:1000D000796500087D650008816500088565000870
:1000E000896500088D650008916500082DE9F14FCC
:1000F00094B003884268109201EB83045B0898086F
:10010000934612911194069301EB830704EB830548
:1001100000F0F5800E460790D6F8008070680F90CA
:10012000B1680E91F2680D92D4F800A06068059055
:10013000A1680491E2680B92396808917A680A9282
:10014000B9680991FA680292D5F80090696803913C
:100150005146AA680192E8680090404600F0A6FC6B
:10016000306005990F9800F0A1FC706004990E981A
:1001700000F09CFCB0600B990D9800F097FC514684
:10018000F0601036404600F001FD0C9005990F9884
:1001900000F0FCFC059004990E9800F0F7FC049028
:1001A0000B990D9800F0F2FC80460898494600F043
:1001B0007DFC386003990A9800F078FC786001991A
:1001C000099800F073FCB8600099029800F06EFC8A
:1001D000F8604846089900F0D9FC08901037039859
:1001E0000A9900F0D3FC03900999019800F0CEFC25
:1001F00081460098029900F0C9FCDBF800100291DA
:100200008246DBF804200C980299019200F022FD4E
:1002100000900199059800F01DFD009900F046FC42
:1002200020600299059800F015FD009001990C9846
:1002300000F010FD0146009800F0A8FC60600199F4
:10024000089800F007FD00900299039800F002FD65
:100250000146009800F09AFC28600199039800F08C
:10026000F9FC00900299089800F0F4FC009900F065
:100270001DFC6860DBF8081004980291DBF80C2084
:10028000029901920BF1100B00F0E4FC0090414642
:10029000019800F0DFFC009900F008FCA0604146E6
:1002A000029800F0D7FC80460498019900F0D2FC37
:1002B0000146404600F06AFC4946E060103401986F
:1002C00000F0C8FC80460298514600F0C3FC01468D
:1002D000404600F05BFCA8605146019800F0BAFC73
:1002E00080460298494600F0B5FC414600F0DEFB2E
:1002F000E86010350798401E07907FF40DAF022389
:100300000699109A129889B200F010FD149842686C
:100310001198069915B0BDE8F04F022363E32DE96B
:10032000F14F9EB002880F46520807EB8204231F4C
:1003300004EB8205291F05EB82091D9707930391A2
:10034000A9F10403059303EB82011E9B0E911C94FB
:100350001B95CDF868905208596819910D91099232
:10036000D5F800803E683046414600F09FFB029081
:100370004146304600F00AFCD5F804B0D7F80480B6
:1003800006464046594600F091FB019059464046CA
:1003900000F0FCFBD9F804100B91824662680A92C7
:1003A0001046314600F082FB0B9900F0EFFB049001
:1003B0005046D9F80010089122680092114600F0CA
:1003C000E5FB089900F072FB06900099029800F096
:1003D000DDFB089900F0DAFB834601980A9900F0EA
:1003E000D5FB0B9900F0D2FB80460A99304600F00D
:1003F000CDFB0B9900F05AFB06460098514600F0E1
:1004000055FB089900F0C2FB82460299009800F063
:100410004DFB089900F04AFB38600199606800F0D4
:1004200045FBD9F8041000F041FB786007F10800A3
:1004300004990090216004F108010698606006911B
:10044000C5F800B0C5F8048005F108020892C9F8A3
:100450000060C9F804A009F108070D9800F108012F
:100460000C910D9800F110010B910D9800F11801FD
:1004700009980A91801E400800F0D081089E009DD6
:10048000DDF818B00E9CDDF83090DDF82C800F9070
:100490008A46316801912A6801990092104600F05D
:1004A00005FB02900199009800F070FB0D907168B7
:1004B00004916A6804990092104600F0F7FA0190DE
:1004C0000499009800F062FB009079680D980C91F7
:1004D000DBF804200B92114600F0E8FA0C9900F0CA
:1004E00055FB0490396800980A91DBF800200892C7
:1004F000114600F04BFB0A9900F0D8FA06900899D3
:10050000029800F043FB0A9900F040FB18900B9909
:10051000019800F03BFB0C9900F038FB17900B9909
:100520000D9800F033FB0C9900F0C0FA1690089972
:10053000009800F0BBFA0A9900F028FB1590089982
:10054000029800F0B3FA0A9900F0B0FA2860DBF8DC
:100550000410019800F0AAFA796800F0A7FA686020
:100560000835059850F8041C0798029150F8041CAF
:1005700000910846029900F099FA019002990098BA
:1005800000F004FB00900598016807980E9101683F
:100590000D9108460E9900F089FA02902168039A9D
:1005A0000C9111680B9108460C9900F0EFFA10902D
:1005B000009900F07BFA149054F8041C039A0A91F5
:1005C00052F8040C0E9908900D9800F0DFFA089983
:1005D00000F0DCFA0A9900F069FA13900899019882
:1005E00000F0D4FA0A9900F0D1FA12900B9902980F
:1005F00000F0CCFA0C9900F0C9FA1190009910980B
:1006000000F0C4FA109008990A9800F0BFFA009020
:100610000D990E9800F0BAFA009900F047FA089088
:100620000B99029800F042FA0C9900F03FFA0799F2
:10063000091F079141F8040F0399019851F8041C10
:1006400000F034FA54F8041C00F030FA0799091F3E
:10065000079141F8040FD9F8002004980292D9F8C4
:100660000410019109F10809029900F0F3FA0090D1
:100670000199069800F0EEFA009900F017FACBF80D
:1006800000000299069800F0E5FA0090019904989C
:1006900000F0E0FA0146009800F078FACBF8040088
:1006A0000BF1080B1398019900F0D4FA009002990D
:1006B000149800F0CFFA0146009800F067FA039909
:1006C00008601498019900F0C5FA009002991398F7
:1006D00000F0C0FA009900F0E9F9039941F8040C20
:1006E0000398A0F108010391D8F80020189802920D
:1006F000D8F80410019108F11008029900F0AAFA44
:1007000000900199179800F0A5FA009900F0CEF931
:1007100030600299179800F09DFA0090019918989E
:1007200000F098FA0146009800F030FA7060083640
:100730001198029900F08EFA80F000400090019923
:10074000129800F087FA0146009800F01FFA059908
:10075000091F059141F8040F0199119800F07AFAE8
:1007600000900299129800F075FA0146009800F086
:100770000DFA0599091F059141F8040FDAF80020D8
:1007800016980292DAF8041001910AF1180A0299F7
:1007900000F060FA00900199159800F05BFA00995A
:1007A00000F084F938600299159800F053FA00902F
:1007B0000199169800F04EFA0146009800F0E6F90B
:1007C000786008370898019900F044FA009002997F
:1007D000109800F03FFA0146009800F0D7F9206029
:1007E0000199109800F036FA00900299089800F0EC
:1007F00031FA009900F05AF944F8040C083C0F98BB
:10080000401E0F907FF445AE0095CDF818B00896C5
:10081000CDF83090CDF82C80CDF828A0089900981C
:100820000C6805682846214600F040F902902146F0
:10083000284600F0ABF9834608984468009845685C
:100840002846214600F032F901902146284600F062
:100850009DF9804678680699059048680390594646
:1008600000F024F9059900F091F904900698D0F869
:1008700000A03E684046514600F088F9314600F03D
:1008800015F904460298514600F080F9314600F00F
:100890007DF905460198039900F078F9059900F073
:1008A00075F981460399584600F070F9059900F0F2
:1008B000FDF883464046514600F0F8F8314600F016
:1008C00065F980460298514600F0F0F8314600F094
:1008D000EDF80099086006980199406800F0E6F884
:1008E000796800F0E3F8009948600C980668D0F841
:1008F00004A00498314600F0ADF90090514620461E
:1009000000F0A8F9009900F0D1F806990860204697
:10091000314600F09FF904460498514600F09AF9D8
:100920000146204600F032F9069948600B980468A9
:1009300046682846214600F08DF9824648463146F1
:1009400000F088F9514600F0B1F80899086048466F
:10095000214600F07FF904462846314600F07AF936
:100960000146204600F012F9089A50600A9804687F
:1009700045685846214600F06DF90646404629462E
:1009800000F068F9314600F091F8386021464046A1
:1009900000F060F904465846294600F05BF901462C
:1009A000204600F0F3F8786004230999199A1D98FD
:1009B00089B200F0BBF91E98426809991C9804237B
:1009C00089B200F0B3F91E98426809991B98042374
:1009D00089B200F0ABF91E9842681A9809991FB0C5
:1009E000BDE8F04F042389B200F0A0B92DE9F04131
:1009F000064617463488012F0D46984609D1291D11
:100A00007CB320460A6882F00042401E41F8082B61
:100A1000F8D1102C15D0202C18D0402C1BD0802CB5
:100A20000FD0B4F5807F11D0B4F5007F13D0B4F5AA
:100A3000806F06D0B4F5006F08D0B4F5805F0AD09F
:100A40000FE029463046FFF751FB0AE029463046C1
:100A5000FFF765FC05E0726801232146284600F097
:100A600065F9B8F1000F04D0B268B189284600F0EA
:100A7000AFFD012F18D1204600F00AFE01464FF0CD
:100A80007E5000F013FE064674B12968304600F02F
:100A9000E1F828603046696800F0DCF880F000403A
:100AA00068600835641EF0D1BDE8F08190EA010F5E
:100AB00040F1728081F00041431A4FF000423EBF86
:100AC0005340C01AC918D3095FEAD05C13EB400F3A
:100AD00034BFB3EB410F40E07CEBD1530CD342EA7F
:100AE000012122D8D1EB402009D3400A28BF5FEA78
:100AF000500140EBCC507047401A15D04002B0FA7C
:100B000080F2521C9040400A4FEA3C23B3EB026350
:100B100084BF00EB730007E040F400001A16DB0707
:100B2000C2F10102D04018437047182BFCDC31FAA7
:100B300003F202FA03F3591A38BF42F00102D2EB72
:100B400040203CBF0018ACF1010C5FEACC5CC20550
:100B500072F100414CEB5020704713EB400F0FD265
:100B6000C94209D0ACEBD153022B03DB4902172B4E
:100B7000DDDD70479143401AC042D5D10020704757
:100B800013EB410FD0D36FF00000704790EA010FD4
:100B90007FF592AF81F00041421A3CBF801A89185C
:100BA000C0F3C752FF2A4FF0004C22D0C1F3C75305
:100BB0004BB3D21AD2F119032EDD4CEA01214CFAC3
:100BC00003F321EA0303D1404CEA00226FF316003D
:100BD00052180FD353EAC2534CEA520273EB0C0C77
:100BE00050EB1220420012F1807F38BF70476FF344
:100BF0001600704753EA026322EA0C0273EB0C0CF6
:100C000050EB12207047490212BF9A4200EB51206C
:100C1000EFE7D2F11703D2D5704730B50168846889
:100C20004218416802EB5103C90703D54C4401E067
:100C3000491C08D19A4218BF12F9011B01D10C308E
:100C400030BD12F8015B002904F8015BF0D4491EA5
:100C5000F7D5EFE7FF2212EAD05C1DBF12EAD153AD
:100C6000944593422BE09C44D30780EA010243EA77
:100C7000002043EA01211A40A1FB0030C04238BFE6
:100C800000187CF17F010BDBFE294ADA5B0842EA9F
:100C9000C15153EA006373F1004C51EB10207047CF
:100CA000D1F1080CDCF120012FDB5B0810FA01F117
:100CB0000B4320FA0CF073F100415041704794450A
:100CC0001CBF02EAD153934280EA010202F00042C3
:100CD0001DD0400019D0490017D05BB9634514D02E
:100CE0000902B1FA81F39940BCEB030CC00140F05A
:100CF0000040C1E70002B0FA80FC10FA0CF0B3EB40
:100D00000C0CC90141F00041B6E7100070474000EB
:100D10000AD0490008D010F1807F94BF11F1807F84
:100D200002E042F0FF407047D04370472DE9FF4F8B
:100D3000A5B004460E46B3E200210122129118929A
:100D4000DDF848E0BDF8A000279A86442798CDF842
:100D500048E0714650F83100279917904FEA4E034A
:100D6000279D51F833000EEB030951F839100EEBB3
:100D7000090A52F83A200EEB0A0B55F83B70169709
:100D80000EEB0B08279D55F838701597C644279D24
:100D900055F83E701497279DDDF848C02F1D57F871
:100DA0003C501395279F3D1D55F838C055F83330FA
:100DB00055F8397055F83AA055F83BB055F83EE073
:100DC000DDF8608001962490239122922193209750
:100DD00004EBC805CDF87CA0CDF878B0CDF874C090
:100DE000CDF870E0CDF8188009950698019908189B
:100DF000049001990818009001990818039001992E
:100E000008181190019908180290814601981199CB
:100E100054F8316081440998076838463146FFF735
:100E200045FE054638463146FFF7B0FEDDF808B00E
:100E30000F90049854F83B6054F8307038463146AF
:100E4000FFF734FE834638463146FFF79FFE0E908B
:100E5000009854F8397054F8308040463946FFF70E
:100E600025FE064640463946FFF790FE0199019A55
:100E70000890494403981A914A4454F832A054F80F
:100E8000307038465146FFF711FE804638465146CD
:100E9000FFF77CFE079031462846FFF777FE824633
:100EA00028463146FFF702FE054658464146FFF701
:100EB0006DFE0D9041465846FFF7F8FD0646284660
:100EC0003146FFF7F3FD099A106028463146FFF7D7
:100ED0005DFE1B90201D119A50F8326009984768FA
:100EE00038463146FFF7E2FD054638463146FFF702
:100EF0004DFE0C90201D029950F83160049950F875
:100F0000318040463146FFF7D1FD07464046314625
:100F1000FFF73CFE8346201D50F839100A910099D6
:100F200050F831800A984146FFF7C0FD06460A99FD
:100F30004046FFF72BFE0B90201D0199494450F8C5
:100F400031000A90211D039851F830800A984146DB
:100F5000FFF7ACFD109040460A99FFF717FE0A9084
:100F600031462846FFF712FE804628463146FFF7F5
:100F70009DFD054610993846FFF708FE0646109875
:100F80003946FFF793FD074650463146FFF78EFD81
:100F9000109031465046FFF7F9FD82462846394603
:100FA000FFF784FD0999486028463946FFF7EEFDB2
:100FB00005460D994046FFF7E9FD06460D98414666
:100FC000FFF774FD804622981B99FFF743FE074602
:100FD0001F982946FFF73EFE3946FFF767FD119936
:100FE00044F8310029462298FFF734FE05461F9841
:100FF0001B99FFF72FFE01462846FFF7C7FD211D6D
:10100000119A41F8320010992498FFF723FE054603
:1010100021983146FFF71EFE2946FFF747FD00994C
:1010200044F8310031462498FFF714FE0546219814
:101030001099FFF70FFE01462846FFF7A7FD211D77
:10104000009A41F8320051461598FFF703FE054615
:101050001D984146FFF7FEFD2946FFF727FD44F89E
:10106000390041461598FFF7F5FD05461D98514694
:10107000FFF7F0FD01462846FFF788FD211D41F8E6
:1010800039000E980799FFF781FDDFF84015FFF74B
:10109000E1FD06460E980799FFF708FDDFF82C15CD
:1010A000FFF7D8FD05460A995846FFF76FFDDFF8B0
:1010B0001C15FFF7CFFD80460A985946FFF7F6FC4E
:1010C000DFF80815FFF7C6FD82460F983146FFF797
:1010D0005DFD83460F983146FFF7E8FC814608988E
:1010E0002946FFF753FD079029460898FFF7DEFCD5
:1010F00005460C984146FFF749FD07460C984146C6
:10110000FFF7D4FC06460B985146FFF73FFD80469B
:101110000B985146FFF7CAFC824648465146FFF7F6
:10112000C5FC109051464846FFF730FD81465846B1
:101130004146FFF7BBFC824658464146FFF726FD75
:10114000834630462946FFF721FD80463046294632
:10115000FFF7ACFC054607993846FFF717FD064632
:1011600007983946FFF7A2FC074617981099FFF732
:1011700071FD009041461398FFF76CFD0099FFF751
:1011800095FC049944F8310041461798FFF762FD39
:10119000804613981099FFF75DFD01464046FFF722
:1011A000F5FC211D049A41F8320049461498FFF7D6
:1011B00051FD80461C982946FFF74CFD4146FFF73C
:1011C00075FC1A9944F8310029461498FFF742FD3E
:1011D00005461C984946FFF73DFD01462846FFF7A6
:1011E000D5FC211D1A9A41F8320051461698FFF796
:1011F00031FD05461E983146FFF72CFD2946FFF7C5
:1012000055FC029944F8310031461698FFF722FD4B
:1012100005461E985146FFF71DFD01462846FFF77B
:10122000B5FC211D029A41F8320059462398FFF778
:1012300011FD054620983946FFF70CFD2946FFF7BA
:1012400035FC039944F8310039462398FFF702FD35
:10125000054620985946FFF7FDFC01462846FFF752
:1012600095FC211D039A41F832000599069808184B
:1012700006900599099800EBC1020698BDF89810F0
:1012800009928842FFF4B1AD1898019E401CB0420B
:101290001890FFF455ADBDF8A000C000ADF8A00057
:1012A000F008002301900693059609940698019989
:1012B00008180490019908180090019908180390E3
:1012C00081460198814400EB09010198029100EBED
:1012D000010A099854F83960056828463146FFF735
:1012E000E5FB834628463146FFF750FC0F900298F5
:1012F00054F83050049854F8306030462946FFF7CF
:10130000D5FB804630462946FFF740FC0E900098FA
:1013100054F83A6054F8307038463146FFF7C6FB4F
:10132000054638463146FFF731FC0199019A08908D
:1013300051441991524454F832000399079054F8DB
:1013400031703946FFF7B2FB064607993846FFF77A
:101350001DFC079029465846FFF718FC10902946B7
:101360005846FFF7A3FB054640463146FFF70EFC03
:101370000D9031464046FFF799FB06462846314618
:10138000FFF794FB0999086028463146FFF7FEFBFA
:1013900044F83900201D50F83960099845682846FE
:1013A0003146FFF783FB834628463146FFF7EEFBC5
:1013B0000C90201D029950F83150049950F831607A
:1013C00030462946FFF772FB804630462946FFF734
:1013D000DDFB0546201D50F83A100A91009950F89F
:1013E00031700A983946FFF761FB06460A9938467C
:1013F000FFF7CCFB0B90201D0199514450F83100B0
:101400000A90211D039851F830700A983946FFF769
:101410004DFB119038460A99FFF7B8FB0A90314608
:101420005846FFF7B3FB074658463146FFF73EFBE9
:10143000834611994046FFF7A9FB0646119841469D
:10144000FFF734FB804658464146FFF72FFB0999CA
:10145000486058464146FFF799FB221D314642F845
:1014600039001098FFF722FB009944F8310031460B
:101470001098FFF78BFB44F83A0038460D99FFF7B8
:1014800085FB211D009A41F8320039460D98FFF77F
:101490000DFB211D41F83A000E980799FFF776FBE6
:1014A0004A49FFF7D7FB07460E990798FFF7FEFA60
:1014B0004649FFF7CFFB06460A992846FFF766FB29
:1014C0004249FFF7C7FB81460A982946FFF7EEFA23
:1014D0003E49FFF7BFFB82460F983946FFF756FBA0
:1014E00083460F983946FFF7E1FA8046089831465F
:1014F000FFF74CFB054608983146FFF7D7FA0890EE
:1015000049460C98FFF742FB06460C984946FFF700
:10151000CDFA81460B985146FFF738FB07460B98EA
:101520005146FFF7C3FA824640465146FFF7BEFADE
:10153000049944F8310051464046FFF727FB199AB9
:1015400044F8320039465846FFF7B0FA029944F899
:10155000310039465846FFF719FB039A44F8320028
:1015600048460899FFF712FB211D049A41F8320002
:1015700049460898FFF79AFA211D199A41F8320056
:1015800029463046FFF702FB211D029A41F832003E
:1015900029463046FFF78AFA211D039A41F83200A6
:1015A00005990698081806900599099800EBC1025C
:1015B0000698BDF8981009928842FFF477AE019E14
:1015C000082EBFF4B9AB29B0BDE8F08FF304353F66
:1015D0004B1C012B98BF70472DE9F003911C9B0811
:1015E000B1F80480B1F802900A8831F802CC804446
:1015F000814402448444D9F80070D8F8006015682A
:10160000DCF80040C9F80060C8F80070CCF8005061
:101610001460D9F80470D8F804605568DCF8044008
:10162000C9F80460C8F80470CCF80450546008315C
:101630005B1ED5D1BDE8F00370474B1C012B98BF52
:1016400070472DE9F003911C9B08B1F80480B1F8B4
:1016500002900A8831F802CC00EB580800EB5909D7
:1016600000EB520200EB5C0CD9F80070D8F8006077
:101670001568DCF80040C9F80060C8F80070CCF8C4
:101680000050146008315B1EDFD1BDE8F0037047E5
:1016900050B1B0FA80F18840C1F19D01C905020640
:1016A00072F1004241EB1020704700004FF0FF0C38
:1016B0001CEAD0531DBF1CEAD1526345624543E08A
:1016C0009B1A5FEACC7280EA010C42EA01211CEA13
:1016D000020C42EA0020421A38BF01EB420253F1E9
:1016E0007E034FEA1121B2FBF1F001FB102260F3FF
:1016F000D63C4FEA0222B2FBF1F001FB102260F36C
:10170000CE1C4FEA0222B2FBF1F006DDFF2B29DAF4
:101710005CEA500040EBC3507047C3F1020301FB89
:101720001022192B40EA4C010CF0004C41F0807162
:1017300021DC21FA03F0C3F120039940114371F138
:10174000004250EB0C00704763451ABF0CEAD152BF
:10175000624512E080EA010C00180CF0004C06D043
:1017600049181AD10CF0004C4CF0FF407047C942A8
:1017700008BF6FEA020C60467047634506D1B2EBC2
:101780000C02F5D001F00041484070474A0212BFF8
:101790000846484000F0004070474AB90902B1FAD3
:1017A00081F2914043B19B18C00140F0004092E7A4
:1017B000C90141F0004152420002B0FA80F3984062
:1017C000D31A88E70000803F0000000043EC7F3F11
:1017D000B00AC93C0FB17F3F2FFB483D6D4E7F3FA4
:1017E00005A9963D6DC47E3F36BDC83D24137E3F9E
:1017F00073B2FA3DAC3A7D3F8340163E283B7C3FB6
:10180000A2102F3EBE147B3FC2C5473E9DC7793F05
:10181000135C603EF853783FCCCF783E07BA763FF2
:10182000938E883E0BFA743F31A0943E4714733F69
:10183000E59AA03E0809713FD47CAC3E9ED86E3F2D
:101840002A44B83E5E836C3F15EFC33EA7096A3F4A
:10185000CA7BCF3ED86B673F80E8DA3E59AA643F27
:101860007533E63E98C5613FEA5AF13E05BE5E3FDC
:10187000275DFC3E1A945B3F3D9C033F5348583F15
:101880009BF5083F31DB543FDA390E3F3D4D513F68
:101890002A68133F029F4D3FC07F183F12D1493F36
:1018A000D17F1D3F03E4453F9967223F70D8413FF8
:1018B0005636273FF9AE3D3F4AEB2B3F4268393F52
:1018C000BB85303FF304353FF304353FBB85303FE4
:1018D0004268393F4AEB2B3FF9AE3D3F5636273F32
:1018E00070D8413F9967223F03E4453FD17F1D3FB8
:1018F00012D1493FC07F183F029F4D3F2A68133FD6
:101900003D4D513FDA390E3F31DB543F9BF5083FE7
:101910005348583F3D9C033F1A945B3F275DFC3E74
:1019200005BE5E3FEA5AF13E98C5613F7533E63E1B
:1019300059AA643F80E8DA3ED86B673FCA7BCF3E46
:10194000A7096A3F15EFC33E5E836C3F2A44B83E49
:101950009ED86E3FD47CAC3E0809713FE59AA03E0C
:101960004714733F31A0943E0BFA743F938E883E28
:1019700007BA763FCCCF783EF853783F135C603E91
:101980009DC7793FC2C5473EBE147B3FA2102F3E84
:10199000283B7C3F8340163EAC3A7D3F73B2FA3D14
:1019A00024137E3F36BDC83D6DC47E3F05A9963DDC
:1019B0006D4E7F3F2FFB483D0FB17F3FB00AC93CC2
:1019C00043EC7F3F000000000000803FB00AC9BC2C
:1019D00043EC7F3F2FFB48BD0FB17F3F05A996BD6C
:1019E0006D4E7F3F36BDC8BD6DC47E3F73B2FABD3C
:1019F00024137E3F834016BEAC3A7D3FA2102FBE1B
:101A0000283B7C3FC2C547BEBE147B3F135C60BE13
:101A10009DC7793FCCCF78BEF853783F938E88BE70
:101A200007BA763F31A094BE0BFA743FE59AA0BE88
:101A30004714733FD47CACBE0809713F2A44B8BE3A
:101A40009ED86E3F15EFC3BE5E836C3FCA7BCFBE90
:101A5000A7096A3F80E8DABED86B673F7533E6BEF8
:101A600059AA643FEA5AF1BE98C5613F275DFCBEA2
:101A700005BE5E3F3D9C03BF1A945B3F9BF508BFCC
:101A80005348583FDA390EBF31DB543F2A6813BF41
:101A90003D4D513FC07F18BF029F4D3FD17F1DBFBD
:101AA00012D1493F996722BF03E4453F563627BF0D
:101AB00070D8413F4AEB2BBFF9AE3D3FBB8530BFED
:101AC0004268393FF30435BFF304353F426839BFFC
:101AD000BB85303FF9AE3DBF4AEB2B3F70D841BFCD
:101AE0005636273F03E445BF9967223F12D149BFCD
:101AF000D17F1D3F029F4DBFC07F183F3D4D51BF5D
:101B00002A68133F31DB54BFDA390E3F534858BFC0
:101B10009BF5083F1A945BBF3D9C033F05BE5EBF2B
:101B2000275DFC3E98C561BFEA5AF13E59AA64BFE1
:101B30007533E63ED86B67BF80E8DA3EA7096ABF17
:101B4000CA7BCF3E5E836CBF15EFC33E9ED86EBF8F
:101B50002A44B83E080971BFD47CAC3E471473BF19
:101B6000E59AA03E0BFA74BF31A0943E07BA76BF47
:101B7000938E883EF85378BFCCCF783E9DC779BF0F
:101B8000135C603EBE147BBFC2C5473E283B7CBF92
:101B9000A2102F3EAC3A7DBF8340163E24137EBF79
:101BA00073B2FA3D6DC47EBF36BDC83D6D4E7FBF7A
:101BB00005A9963D0FB17FBF2FFB483D43EC7FBF8A
:101BC000B00AC93C000080BF0000000043EC7FBFAA
:101BD000B00AC9BC0FB17FBF2FFB48BD6D4E7FBFA0
:101BE00005A996BD6DC47EBF36BDC8BD24137EBF9A
:101BF00073B2FABDAC3A7DBF834016BE283B7CBFB2
:101C0000A2102FBEBE147BBFC2C547BE9DC779BF01
:101C1000135C60BEF85378BFCCCF78BE07BA76BFEE
:101C2000938E88BE0BFA74BF31A094BE471473BF65
:101C3000E59AA0BE080971BFD47CACBE9ED86EBF29
:101C40002A44B8BE5E836CBF15EFC3BEA7096ABF46
:101C5000CA7BCFBED86B67BF80E8DABE59AA64BF23
:101C60007533E6BE98C561BFEA5AF1BE05BE5EBFD8
:101C7000275DFCBE1A945BBF3D9C03BF534858BF11
:101C80009BF508BF31DB54BFDA390EBF3D4D51BF64
:101C90002A6813BF029F4DBFC07F18BF12D149BF32
:101CA000D17F1DBF03E445BF996722BF70D841BFF4
:101CB000563627BFF9AE3DBF4AEB2BBF426839BF4E
:101CC000BB8530BFF30435BFF30435BFBB8530BFE0
:101CD000426839BF4AEB2BBFF9AE3DBF563627BF2E
:101CE00070D841BF996722BF03E445BFD17F1DBFB4
:101CF00012D149BFC07F18BF029F4DBF2A6813BFD2
:101D00003D4D51BFDA390EBF31DB54BF9BF508BFE3
:101D1000534858BF3D9C03BF1A945BBF275DFCBE70
:101D200005BE5EBFEA5AF1BE98C561BF7533E6BE17
:101D300059AA64BF80E8DABED86B67BFCA7BCFBE42
:101D4000A7096ABF15EFC3BE5E836CBF2A44B8BE45
:101D50009ED86EBFD47CACBE080971BFE59AA0BE08
:101D6000471473BF31A094BE0BFA74BF938E88BE24
:101D700007BA76BFCCCF78BEF85378BF135C60BE8D
:101D80009DC779BFC2C547BEBE147BBFA2102FBE80
:101D9000283B7CBF834016BEAC3A7DBF73B2FABD10
:101DA00024137EBF36BDC8BD6DC47EBF05A996BDD8
:101DB0006D4E7FBF2FFB48BD0FB17FBFB00AC9BCBE
:101DC00043EC7FBF00000080000080BFB00AC93C28
:101DD00043EC7FBF2FFB483D0FB17FBF05A9963D68
:101DE0006D4E7FBF36BDC83D6DC47EBF73B2FA3D38
:101DF00024137EBF8340163EAC3A7DBFA2102F3E17
:101E0000283B7CBFC2C5473EBE147BBF135C603E0F
:101E10009DC779BFCCCF783EF85378BF938E883E6C
:101E200007BA76BF31A0943E0BFA74BFE59AA03E84
:101E3000471473BFD47CAC3E080971BF2A44B83E36
:101E40009ED86EBF15EFC33E5E836CBFCA7BCF3E8C
:101E5000A7096ABF80E8DA3ED86B67BF7533E63EF4
:101E600059AA64BFEA5AF13E98C561BF275DFC3E9E
:101E700005BE5EBF3D9C033F1A945BBF9BF5083FC8
:101E8000534858BFDA390E3F31DB54BF2A68133F3D
:101E90003D4D51BFC07F183F029F4DBFD17F1D3FB9
:101EA00012D149BF9967223F03E445BF5636273F09
:101EB00070D841BF4AEB2B3FF9AE3DBFBB85303FE9
:101EC000426839BFF304353FF30435BF4268393FF8
:101ED000BB8530BFF9AE3D3F4AEB2BBF70D8413FC9
:101EE000563627BF03E4453F996722BF12D1493FC9
:101EF000D17F1DBF029F4D3FC07F18BF3D4D513F59
:101F00002A6813BF31DB543FDA390EBF5348583FBC
:101F10009BF508BF1A945B3F3D9C03BF05BE5E3F27
:101F2000275DFCBE98C5613FEA5AF1BE59AA643FDD
:101F30007533E6BED86B673F80E8DABEA7096A3F13
:101F4000CA7BCFBE5E836C3F15EFC3BE9ED86E3F8B
:101F50002A44B8BE0809713FD47CACBE4714733F15
:101F6000E59AA0BE0BFA743F31A094BE07BA763F43
:101F7000938E88BEF853783FCCCF78BE9DC7793F0B
:101F8000135C60BEBE147B3FC2C547BE283B7C3F8E
:101F9000A2102FBEAC3A7D3F834016BE24137E3F75
:101FA00073B2FABD6DC47E3F36BDC8BD6D4E7F3F76
:101FB00005A996BD0FB17F3F2FFB48BD43EC7F3F86
:101FC000B00AC9BC000000000000803F900E493CF0
:101FD00011FB7F3FB00AC93C43EC7F3F2CC3163D49
:101FE00098D37F3F2FFB483D0FB17F3F742B7B3D44
:101FF000AB847F3F05A9963D6D4E7F3F80B6AF3DD8
:10200000580E7F3F36BDC83D6DC47E3F2EBCE13DBE
:10201000B0707E3F73B2FA3D24137E3F86CF093EF7
:10202000CCAB7D3F8340163EAC3A7D3FB6AB223E03
:10203000C9BF7C3FA2102F3E283B7C3FCF6E3B3E6A
:10204000CDAC7B3FC2C5473EBE147B3F0115543E1D
:1020500002737A3F135C603E9DC7793F7F9A6C3E66
:102060009812793FCCCF783EF853783FC07D823EBE
:10207000C58B773F938E883E07BA763F229A8E3E75
:10208000C6DE753F31A0943E0BFA743F86A09A3E9F
:10209000DD0B743FE59AA03E4714733F128FA63EB6
:1020A0005213723FD47CAC3E0809713FEF63B23EDD
:1020B00073F56F3F2A44B83E9ED86E3F4A1DBE3E20
:1020C00093B26D3F15EFC33E5E836C3F53B9C93E7B
:1020D0000C4B6B3FCA7BCF3EA7096A3F4136D53ECA
:1020E0003CBF683F80E8DA3ED86B673F4F92E03EE6
:1020F000880F663F7533E63E59AA643FBBCBEB3E83
:102100005A3C633FEA5AF13E98C5613FCBE0F63E48
:102110002146603F275DFC3E05BE5E3FE4E7003F91
:10212000532D5D3F3D9C033F1A945B3F824B063F1E
:102130006AF2593F9BF5083F5348583F6B9A0B3F53
:10214000E595563FDA390E3F31DB543FCDD3103F92
:102150004918533F2A68133F3D4D513FD9F6153F6B
:102160001F7A4F3FC07F183F029F4D3FC6021B3F63
:10217000F8BB4B3FD17F1D3F12D1493FCBF61F3FEC
:1021800065DE473F9967223F03E4453F25D2243F60
:1021900000E2433F5636273F70D8413F1594293F10
:1021A00067C73F3F4AEB2B3FF9AE3D3FDE3B2E3F3B
:1021B0003B8F3B3FBB85303F4268393FC9C8323F08
:1021C000233A373FF304353FF304353F233A373F93
:1021D000C9C8323F4268393FBB85303F3B8F3B3FE8
:1021E000DE3B2E3FF9AE3D3F4AEB2B3F67C73F3FFB
:1021F0001594293F70D8413F5636273F00E2433FB0
:1022000025D2243F03E4453F9967223F65DE473FDF
:10221000CBF61F3F12D1493FD17F1D3FF8BB4B3F4B
:10222000C6021B3F029F4D3FC07F183F1F7A4F3FA2
:10223000D9F6153F3D4D513F2A68133F4918533F8A
:10224000CDD3103F31DB543FDA390E3FE595563F91
:102250006B9A0B3F5348583F9BF5083F6AF2593F32
:10226000824B063F1A945B3F3D9C033F532D5D3FDD
:10227000E4E7003F05BE5E3F275DFC3E2146603F30
:10228000CBE0F63E98C5613FEA5AF13E5A3C633FC7
:10229000BBCBEB3E59AA643F7533E63E880F663FE1
:1022A0004F92E03ED86B673F80E8DA3E3CBF683F24
:1022B0004136D53EA7096A3FCA7BCF3E0C4B6B3FE8
:1022C00053B9C93E5E836C3F15EFC33E93B26D3F79
:1022D0004A1DBE3E9ED86E3F2A44B83E73F56F3FFE
:1022E000EF63B23E0809713FD47CAC3E5213723F9B
:1022F000128FA63E4714733FE59AA03EDD0B743F54
:1023000086A09A3E0BFA743F31A0943EC6DE753F1C
:10231000229A8E3E07BA763F938E883EC58B773FD2
:10232000C07D823EF853783FCCCF783E9812793FFB
:102330007F9A6C3E9DC7793F135C603E02737A3F83
:102340000115543EBE147B3FC2C5473ECDAC7B3F1A
:10235000CF6E3B3E283B7C3FA2102F3EC9BF7C3F47
:10236000B6AB223EAC3A7D3F8340163ECCAB7D3FC0
:1023700086CF093E24137E3F73B2FA3DB0707E3F94
:102380002EBCE13D6DC47E3F36BDC83D580E7F3F3B
:1023900080B6AF3D6D4E7F3F05A9963DAB847F3F34
:1023A000742B7B3D0FB17F3F2FFB483D98D37F3F80
:1023B0002CC3163D43EC7F3FB00AC93C11FB7F3F65
:1023C000900E493C0000803F0000000011FB7F3F61
:1023D000900E49BC43EC7F3FB00AC9BC98D37F3F05
:1023E0002CC316BD0FB17F3F2FFB48BDAB847F3F91
:1023F000742B7BBD6D4E7F3F05A996BD580E7F3F68
:1024000080B6AFBD6DC47E3F36BDC8BDB0707E3FE7
:102410002EBCE1BD24137E3F73B2FABDCCAB7D3F31
:1024200086CF09BEAC3A7D3F834016BEC9BF7C3F14
:10243000B6AB22BE283B7C3FA2102FBECDAC7B3F6B
:10244000CF6E3BBEBE147B3FC2C547BE02737A3F10
:10245000011554BE9DC7793F135C60BE9812793F49
:102460007F9A6CBEF853783FCCCF78BEC58B773F50
:10247000C07D82BE07BA763F938E88BEC6DE753FAA
:10248000229A8EBE0BFA743F31A094BEDD0B743FCE
:1024900086A09ABE4714733FE59AA0BE5213723FBE
:1024A000128FA6BE0809713FD47CACBE73F56F3F96
:1024B000EF63B2BE9ED86E3F2A44B8BE93B26D3F62
:1024C0004A1DBEBE5E836C3F15EFC3BE0C4B6B3F17
:1024D00053B9C9BEA7096A3FCA7BCFBE3CBF683F9C
:1024E0004136D5BED86B673F80E8DABE880F663FBD
:1024F0004F92E0BE59AA643F7533E6BE5A3C633F33
:10250000BBCBEBBE98C5613FEA5AF1BE2146603FA6
:10251000CBE0F6BE05BE5E3F275DFCBE532D5D3FA2
:10252000E4E700BF1A945B3F3D9C03BF6AF2593F4A
:10253000824B06BF5348583F9BF508BFE595563F71
:102540006B9A0BBF31DB543FDA390EBF4918533F4A
:10255000CDD310BF3D4D513F2A6813BF1F7A4F3F67
:10256000D9F615BF029F4D3FC07F18BFF8BB4B3F48
:10257000C6021BBF12D1493FD17F1DBF65DE473F59
:10258000CBF61FBF03E4453F996722BF00E2433FFC
:1025900025D224BF70D8413F563627BF67C73F3F7B
:1025A000159429BFF9AE3D3F4AEB2BBF3B8F3B3F14
:1025B000DE3B2EBF4268393FBB8530BF233A373FF1
:1025C000C9C832BFF304353FF30435BFC9C8323F31
:1025D000233A37BFBB85303F426839BFDE3B2E3FD1
:1025E0003B8F3BBF4AEB2B3FF9AE3DBF1594293FD4
:1025F00067C73FBF5636273F70D841BF25D2243F1B
:1026000000E243BF9967223F03E445BFCBF61F3F7B
:1026100065DE47BFD17F1D3F12D149BFC6021B3FB8
:10262000F8BB4BBFC07F183F029F4DBFD9F6153F87
:102630001F7A4FBF2A68133F3D4D51BFCDD3103F86
:10264000491853BFDA390E3F31DB54BF6B9A0B3F49
:10265000E59556BF9BF5083F534858BF824B063F50
:102660006AF259BF3D9C033F1A945BBFE4E7003F09
:10267000532D5DBF275DFC3E05BE5EBFCBE0F63E41
:10268000214660BFEA5AF13E98C561BFBBCBEB3E25
:102690005A3C63BF7533E63E59AA64BF4F92E03E91
:1026A000880F66BF80E8DA3ED86B67BF4136D53EFB
:1026B0003CBF68BFCA7BCF3EA7096ABF53B9C93EBA
:1026C0000C4B6BBF15EFC33E5E836CBF4A1DBE3E15
:1026D00093B26DBF2A44B83E9ED86EBFEF63B23E40
:1026E00073F56FBFD47CAC3E080971BF128FA63E54
:1026F000521372BFE59AA03E471473BF86A09A3E5C
:10270000DD0B74BF31A0943E0BFA74BF229A8E3E4B
:10271000C6DE75BF938E883E07BA76BFC07D823E07
:10272000C58B77BFCCCF783EF85378BF7F9A6C3E8D
:10273000981279BF135C603E9DC779BF0115543E66
:1027400002737ABFC2C5473EBE147BBFCF6E3B3E0D
:10275000CDAC7BBFA2102F3E283B7CBFB6AB223E48
:10276000C9BF7CBF8340163EAC3A7DBF86CF093ED1
:10277000CCAB7DBF73B2FA3D24137EBF2EBCE13DCE
:10278000B0707EBF36BDC83D6DC47EBF80B6AF3D64
:10279000580E7FBF05A9963D6D4E7FBF742B7B3DC4
:1027A000AB847FBF2FFB483D0FB17FBF2CC3163DCD
:1027B00098D37FBFB00AC93C43EC7FBF900E493C21
:1027C00011FB7FBFF8B5044600260025002C00F061
:1027D0008D80A06A28B9E56284F82400204600F0C4
:1027E000D2FA20688168CA0719D58168490849006A
:1027F000816000F0C9FA074620688168C8070ED5D5
:1028000000F0C2FAC01B0228F6D9A06A40F01000FE
:10281000A062E06A40F00100E062012000E00020D8
:10282000A16ACA065ED401005CD1A16A21F4885174
:1028300041F00201A1626368E269217B1343A2684F
:10284000B2F5807F14BF012A4FF48076227D012AE1
:1028500043EA41030FD131B9A169491E46EA413625
:1028600046F4006607E0A16A41F02001A162E16A36
:1028700041F00101E16221684A6822F4694216438D
:102880004E602268DFF8301496680E401E43966052
:10289000A168B1F5807F18BF012902D125696D1E9D
:1028A0002D052168CA6A22F470021543CD62DFF853
:1028B0000C142568AA680A409A4208D10023E362F2
:1028C000A16A21F0020141F00101A162F2BDA06AFA
:1028D00020F0020040F01000A062E06A40F0010029
:1028E000E06203E0A06A40F01000A0620120F2BDA7
:1028F000002184F8241010BDF8B504460E46206867
:10290000DFF8CC13174688421CBFDFF8B42390428F
:1029100005D1DFF8B003016811F4702F75D194F878
:102920002400012801D10220F2BD012084F82400F6
:10293000204600F08DF9050063D1A16ADFF88C0311
:10294000014041F48071A1622068DFF8741388426D
:102950001AD1DFF870130A6812F4702F14D0A06A2D
:1029600040F48010A0620968480505D5A16A21F4E9
:10297000005141F48051A162A06AC10446BFE06ADF
:1029800020F0060000200DE0A16A21F48011A16270
:1029900040684105F0D5A06A20F4005040F4805012
:1029A000A062E9E7E062002184F824103B46216A36
:1029B0000FF26D308862216A0FF2AD30C862216A71
:1029C0000FF2AD3008636FF00200226810603246EB
:1029D0002068816841F480718160206800F14C01B9
:1029E000206A00F003FA2068816801F46021B1F5E3
:1029F000602F81680CBF41F4A00141F48011816017
:102A000004E0002084F8240000E001252846F2BDFF
:102A100010B5044694F82400012801D1022010BD0D
:102A2000012084F82400204600F058F9010016D156
:102A300021688A6822F480728A60216A91F82120D4
:102A4000022A0CD1084600F019FA0100A16A06BF5B
:102A500021F4885141F0010141F04001A16247E7B2
:102A600010B5044621684868820628D50B689A0785
:102A700025D5A06AC20603D4A06A40F40070A06203
:102A8000886800F46020B0F5602F04BF207B002828
:102A90000ED1486820F020004860A06A20F48070C1
:102AA000A062A06AC10403D4A06A40F00100A06241
:102AB000204600F02DFC21686FF0120008602168AC
:102AC0004868020631D50B685A072ED5A06AC2069F
:102AD00003D4A06A40F40050A062886800F4E0408B
:102AE000B0F5E04F0BD04868420517D4886800F471
:102AF0006020B0F5602F04BF207B00280ED148680D
:102B000020F080004860A06A20F48050A062A06A93
:102B1000C10503D4A06A40F00100A062204600F085
:102B200011FC21686FF00C000860226850684106B3
:102B30000DD51268D1070AD5A06A40F48030A06292
:102B4000204600F000FC21686FF00100086010BD15
:102B5000F8B4024608460021009192F82440012C66
:102B600008BF022072D0012382F824301F26436858
:102B700004681568072B0AD25B1E03EB83036F6B97
:102B80009E4027EA06069C4034436C6316E00D2BFA
:102B90000AD2DB1F03EB83032F6B9E4027EA060656
:102BA0009C4034432C6309E00D3B03EB8303EF6A45
:102BB0009E4027EA06069C403443EC6207260568DF
:102BC000836814680A2D0AD30A3D05EB4505E768BA
:102BD000AE4027EA0606AB403343E36008E005EB6E
:102BE00045052769AE4027EA0606AB40334323611B
:102BF0000368102B18BF112B24D11368344CA34247
:102C00001BD1344B1D682C021CD41D6845F40005F3
:102C10001D600068102815D12B4B2F4C1868B0FB95
:102C2000F4F404EB84056D000095009800281EBFA5
:102C30000098401E0090F8D104E00121906A40F015
:102C400020009062002082F824000846F2BC704701
:102C500038B504460020009020688168CA0729D44E
:102C600081681D4A41F00101816017480168B1FB8C
:102C7000F2F2009202E00098401E009000980028B6
:102C8000F9D100F081F8054620688168C80711D4A1
:102C900000F07AF8401B0328F6D3A06A40F0100039
:102CA000A0620021E06A40F00100E06284F8241094
:102CB000012032BD002032BDFDF7E1FFFE0E1FFFF7
:102CC00000280140042401400C000020FEF1FFFF19
:102CD000002401400824014040420F0038B504465A
:102CE00020688168CA0719D5816849084900816050
:102CF00000F04AF8054620688168C8070ED500F044
:102D000043F8401B0328F6D3A06A40F01000A062ED
:102D1000E06A40F00100E062012032BD002032BDD7
:102D2000416A8A6A12F0500F1BD1886A40F4007021
:102D300088620A68906800F46020B0F5602F04BFD4
:102D4000087B00280AD1886A20F480708862886A2B
:102D5000C20403D4886A40F001008862084600F08B
:102D6000D7BA096A0A6B1047406A00F0EDBA000052
:102D7000406A816A41F040018162C16A41F0040108
:102D8000C16200F0E2BA704701484068704700BF76
:102D90000000002008B9012070470268DFF85412D3
:102DA0008A181423B2FBF3F3DFF84C12C1639B00C3
:102DB0000222036480F8212001680B684168826860
:102DC000D0F800C06FF30D130B43C16813430269C1
:102DD0000B434169134382690B43C16913430B439E
:102DE000CCF8003000228263012163E0F0B490F857
:102DF00020500024012D08BF02203DD090F8216012
:102E00000125012E80F8205032D1022580F8215072
:102E10008463012605682F687F087F002F60056C9A
:102E2000C76BAE407E6005686B604368102B04D1B1
:102E30000568AA600268D16003E0036899600168D0
:102E4000CA600268C16A21B1136843F00E031360BF
:102E500008E0116821F00401116001680A6842F07D
:102E60000A020A600068016841F00101016002E0A5
:102E700080F8204002242046F0BC704790F82110D2
:102E8000022906D004228263002180F8201001204C
:102E9000704701680A6822F00E020A600122016888
:102EA0000B685B085B000B60016CC36B8A405A6067
:102EB0000121002280F8211080F820200020704796
:102EC00030B4C16B0A6801680B68046C0425A54026
:102ED0002A4233D05D0731D50A68930603D40A68C5
:102EE00022F004020A600168444A914208BF0421AA
:102EF0001DD0434A914208BF402118D0414A914217
:102F000008BF4FF4806112D03F4A914208BF4FF48E
:102F100080410CD03D4A914208BF4FF4802106D039
:102F20003B4A91420CBF4FF480014FF08061394A17
:102F30001160C16A002959D030BC08470225A5405C
:102F40002A4238D09D0736D50A68930606D40A6807
:102F500022F00A020A60012180F821100168274A44
:102F6000914208BF02211DD0254A914208BF20216D
:102F700018D0244A914208BF4FF4007112D0224A5F
:102F8000914208BF4FF400510CD0204A914208BF33
:102F90004FF4003106D01E4A91420CBF4FF400118D
:102FA0004FF000711B4A1160002180F82010816AE7
:102FB000E1B130BC0847082505FA04F4224215D0D7
:102FC0001A0713D50B6823F00E030B600122016C66
:102FD000C36B8A405A600121816380F8211000216F
:102FE00080F82010016B09B130BC084730BC704735
:102FF00000000000F8FFFDBF000002400800024092
:103000001C000240300002404400024058000240D0
:103010006C0002400400024030B40346002093F8E4
:103020002040012C08BF022018D093F82150012421
:10303000012D83F820400DD103290BD8DFE801F0E2
:10304000020406089A6206E0DA6204E01A6302E00B
:103050005A6300E00120002183F8201030BC704743
:1030600038B5AF4C8CB0402104F5607000F06EF9BB
:10307000002840F0C08084F8BC01002108A800228C
:103080000023002580E82E0001A880E80E0004A897
:1030900080E82E00A34D686840F40070686001224B
:1030A000686800F40070009003230098696841F09C
:1030B00008016960686800F00800009000990892B3
:1030C000099308A9984800F097F99848606400218E
:1030D000A164E16484F8501084F858100120606500
:1030E000E0654FF40021216604F14400FFF76AFB1C
:1030F000002840F0808008200121019002910022E8
:10310000039201A904F14400FFF722FD002872D1C7
:1031100002214FF400420491069204A800F042FA02
:10312000286840F0010028600022296801F00101B0
:10313000009100987E4921604FF480708021E16009
:1031400020614FF4806161612020A0614FF4005143
:103150006260A260E1612046FFF71CFE00284AD1B0
:1031600004F1440060626466002203210B2000F039
:1031700002FB0B2000F02CFB00220221122000F0A9
:10318000FAFA122000F024FBA8686A4940F0020015
:10319000A8600922A86800F0020000900098664824
:1031A0006167C4F880200168644AB1FBF2F2531EE3
:1031B00000209BB2C4F88400E067C4F88800C4F81B
:1031C0008C00A36704F1740000F038FB98B920214B
:1031D00001910022029201A904F1740000F092FC16
:1031E00048B904F1440000F0C5FC20B904F17400B2
:1031F00000F033FB10B101200DB030BD402204F5CA
:10320000E07104F14400FFF777FB401E8041C043AA
:10321000C00F0DB030BD2DE9F047DFF8048198F8FC
:10322000BC010128FBD1002188F8BC1108F5E07928
:1032300008F51077102439F9020BA0F5006000F0B2
:10324000FFFC47F8040B39F9021BA1F5006000F000
:10325000F7FC47F8040B39F9020BA0F5006000F009
:10326000EFFC47F8040B39F9021BA1F5006000F0F0
:10327000E7FC641E47F8040BDDD1002308F1BC0213
:1032800008F5107108F5607000F0E4FD002708F102
:10329000BC054CF25034DFF8A89029686E680846E7
:1032A000FDF7D8FC824630463146FDF7D3FC514647
:1032B000FDF7FCFB00F0F2FD790808EB410600F099
:1032C000FBFE4946FDF7C6FC00F0F8FEA6F84003F9
:1032D000B6F84003A042A4BF0021A6F84013B6F8F8
:1032E00040033728A7BF3738A6F840030021A6F8C7
:1032F0004013BF1C0835402FCFD3402208F5E071A2
:1033000008F14400FFF7F8FA08F55070BDE8F087BF
:1033100080B5FFF77DFB0249012081F8BC0101BDAA
:10332000281A002014100240000C01400024014023
:1033300008000240000400400C000020803801001A
:103340000000A041704770477047704770B4024654
:103350005368946855694E081680118200201688BB
:103360009189102E1DD0202E16D0402E0FD0802EE9
:1033700008D0B6F5807F19D14FF4DC710F4C104B9B
:10338000104D15E0D021104C104B114D10E038219C
:10339000104C114B114D0BE03021114C114B124DC3
:1033A00006E01421114C124B124D01E04FF0FF309A
:1033B000556194609181536070BC7047445300081C
:1033C000C4170008C41F0008B45A0008444B000882
:1033D000444F000864620008B4560008B45800085E
:1033E000D4620008DC5D0008DC5E00086C63000845
:1033F00064610008E46100082DE9F84F4FF0000E09
:1034000000246FF01F085A4A5A4BDFF86C914FF0B6
:103410000F0A83460CE0906048688002D06854BF71
:1034200020EA07070743D7600EF1010E08F10408F0
:103430000F6837FA0EF000F09880012000FA0EF6BF
:103440003740B742F0D1486838B301281AD0022873
:103450001DD003282ED0112816D012281AD0474D7F
:10346000A8421CBF464DA84217D0464DA8421CBFDB
:10347000454DA84211D0454DA8421CBF444DA8421D
:103480000BD018E0CC6816E0CC68241D13E0CC68A3
:10349000083410E0CC680C340DE0886808B90424C6
:1034A00009E0012819BF0824CBF814600824CBF8E0
:1034B000106000E00024B7F5807F39BF58464FEA1E
:1034C0008E0C0BF10400C4460AFA0CF60568B543ED
:1034D00004FA0CF6354305604868C000A4D5D9F855
:1034E000000040F00100C9F80000D9F8005005F0D4
:1034F000010500954FEA8E0500984FEA9E0053F8AB
:10350000206005F00C0C0AFA0CF526EA0505214EA0
:10351000B34508BF00260ED01F4EB34508BF012695
:1035200009D01E4EB34508BF022604D01C4EB34539
:103530000CBF0326042606FA0CF6354343F8205048
:103540004868C00310684CBF3843B84310604868EF
:10355000800350684CBF3843B84350604868C0028D
:1035600090684CBF3843B84355E7BDE8F18F000081
:103570000004014008000140181002400000111032
:103580000000121000002110000022100000311075
:103590000000321000080140000C01400010014002
:1035A000001401402DE9FC410646614D3078C10709
:1035B00051D5A8690024C10009D4A86940F0805001
:1035C000A8610124A86900F0805000900098594F2C
:1035D0003868C10512D4386840F480703860FFF74D
:1035E000D3FB80463868C10508D4FFF7CDFBA0EBBC
:1035F00008006528F6D30320BDE8F681E86910F4D9
:1036000040701EBF716801F44071884218D04A4969
:10361000E86901220A60002320F440700B60E86131
:10362000C0070DD5FFF7B0FB074641F28938E869BE
:10363000810705D4FFF7A8FBC01B4045F7D3DAE7A5
:10364000E969706821F440710143E9611CB1A8691E
:1036500020F08050A8613078810705D52A68B068CD
:1036600022F4404202432A603178C80605D5296811
:10367000F06821F48001014329600020BDE8F68153
:1036800010B50021012826D0022845D010284DD1A0
:103690002A4B58681A68D40148D500BF2AA1C0F344
:1036A0008342C003895C0CD5586800BF2AA4244A11
:1036B000C0F34040205CB2FBF0F408462146414391
:1036C00001E0204A5143586842022FD449000320A8
:1036D000B1FBF0F12AE01948026A40F202331340CC
:1036E000B3F5817F08BF4FF400411FD002F440734F
:1036F000B3F5007F05D1436A9C0748BF49F64041B6
:1037000014D402F44072B2F5407F0FD100688203F6
:103710000CD54FF2244109E000F01DFF07494A682B
:10372000C2F38131491C4900B0FBF1F1084610BDDC
:103730000410024000700040400442420010024069
:1037400000127A0000093D0002030405060708097B
:103750000A0B0C0D0E0F101001020000304B1968FF
:103760004FF6FF020002114000F4E06008432D49CB
:1037700008431860704730B4294B1C68C4F3022317
:10378000C3F10705052D28BF0F2405D20125C3F17C
:10379000070405FA04F4641E1D1D072D34BF002321
:1037A000DB1E21409940012404FA03F35B1E1A40FA
:1037B00011430901020003D41B48815430BC7047F7
:1037C0001A4B02F00F021A4402F8041C30BC704776
:1037D000010007D4012200F01F01154B8A40400967
:1037E00043F820207047401EB0F1807F01D30120B4
:1037F000704710494860F02081F8130D00228A605C
:103800000720086000207047010007D4012200F063
:103810001F01094B8A40400943F8202070470000EF
:103820000CED00E00000FA0500E400E018ED00E017
:1038300000E100E010E000E080E200E010B50400EC
:1038400001D1012010BD94F83D0028B9002184F871
:103850003C10204600F0A9FE24E090F83D1001291C
:1038600001D001207047022180F83D10DFF87C2054
:103870000168914218BFB1F1804F07D0DFF8702086
:1038800091421CBFDFF86C30994205D1896801F084
:103890000701062904D001680A6842F001020A60A3
:1038A00000207047022084F83D00211D206800F0B0
:1038B00047F8012084F8460084F83E0084F83F0071
:1038C00084F8400084F8410084F8420084F8430002
:1038D00084F8440084F8450084F83D00002010BDC1
:1038E00084F83D0084F83C0010BD0000002C01402D
:1038F000000400400008004010B5044694F83C0065
:10390000012801D1022010BD012084F83C004AB1F9
:10391000042A0BD0082A0DD00C2A04BF206800F01E
:10392000B8F80AE0206800F03DF806E0206800F0F2
:103930005FF802E0206800F083F80020FFF7D2BFB4
:1039400030B4644C0368A04218BFB0F1804F05D07A
:10395000614A90421CBF614DA8420AD14A6823F0D7
:1039600070031343A0421EBFB0F1804F5A4A9042E9
:1039700002D05A4DA84203D1CA6823F440731343BE
:103980004A6923F0800313430360A0428B68C3623B
:103990000A68826202D10969514A116001234361B8
:1039A00030BC704770B4026A520852000262066A64
:1039B000446885690B688A6825F073051D4326F005
:1039C00002061643434B98420BD1CA684B6926F056
:1039D000080624F4407416438A691C4326F0040642
:1039E00014434460856149684163066270BC704756
:1039F00070B4026A374E22F010020262B042056AC9
:103A0000436884690A6824F4E64444EA02248A6824
:103A100025F0200545EA02150DD1CA684E6925F04A
:103A2000800545EA02158A6923F44063164325F0B0
:103A3000400543EA8603436084614968816325E069
:103A400070B4026A22F480720262056A4368C46933
:103A50000A688E6824F0730414431E4A25F4007526
:103A6000904245EA06250DD1CA684E6925F40065E5
:103A700045EA02258A6923F44053164325F48065FC
:103A800043EA06134360C4614968C163056270BCC0
:103A9000704770B4026A0F4E22F480520262B04244
:103AA000046A4268C3690D6823F4E64343EA0523C8
:103AB0008D6824F4005444EA053404D14D6922F49D
:103AC000804242EA85124260C3614968016404622F
:103AD00070BC7047002C014000040040000800400A
:103AE000302C014001F01F01036A4FF0010C0CFA69
:103AF00001FC23EA0C03036202FA01F1036A194391
:103B00000162704730B490F83C20012A08BF0220BF
:103B100026D0012280F83C20022380F83D30046842
:103B20006568A3680A6825F070051543656002683A
:103B30000D4CA24218BFB2F1804F05D00B4CA242EF
:103B40001CBF0B4DAA4204D1496823F080030B43EC
:103B50009360012280F83D20002180F83C10002075
:103B600030BC704700000000002C01400004004001
:103B7000000800407CB504460020009094F8241012
:103B8000012901D1022076BD012084F824002046BD
:103B9000FFF7A4F805004BD1A06A20F4885040F04C
:103BA0000200A0620220FFF76BFDDFF890100A68A8
:103BB000B2FBF0F0400001E00098401E0090009839
:103BC0000028F9D12046FFF743F82068816841F0CA
:103BD00008018160FFF7D8F80646206881680A0767
:103BE00005D5FFF7D1F8801B0B28F6D30FE08168CD
:103BF00041F004018160FFF7C7F80646206881683C
:103C000048070FD5FFF7C0F8801B0B28F6D3A06A32
:103C100020F0020040F01000A062002084F8240090
:103C2000012076BDA06A20F0020040F00100A062F1
:103C3000002084F82400284676BD00000C000020F7
:103C400010F0004C68B148BF4042B0FA80F18840A3
:103C5000D1F19D014CEAC15C010671F100414CEBD0
:103C6000102070472DE9F04F0F46904685B0396817
:103C7000466904884FF08040FCF7ECFF06F1080B22
:103C8000064679684FF08040FCF7E4FF0546304671
:103C90002946FCF70BFF4FF07C51FCF7DBFF48F89F
:103CA000040B29463046FCF771FF4FF07C51641E2F
:103CB000FCF7D0FF07EBC40648F8040B083771681F
:103CC000029156F8082901923D68786800902946CB
:103CD0000198DBF80090DBF804A0FCF757FF049094
:103CE000083702980099FCF7E1FE039029460198F5
:103CF000FCF7DCFE054604984946FCF7ABFF294675
:103D0000FCF7D4FE054603985146FCF7A3FF29466D
:103D1000FCF7CCFE4FF07C51FCF79CFF48F8040BFD
:103D20000BF1080B00980299FCF730FF0546049848
:103D30005146FCF78FFF2946FCF7B8FE054603986D
:103D40004946FCF787FF01462846FCF71FFF4FF066
:103D50007C51FCF77FFF641E48F8040BAFD176E07E
:103D60002DE9F04F0F46914685B03E68D7F80480A4
:103D70000488456930464146FCF798FE4FF07C5177
:103D8000FCF768FF49F8040B41463046FCF7FEFE9D
:103D9000641E4FF07C5107EBC4060835FCF75AFF50
:103DA0000837002C49F8040B51D07168029156F87D
:103DB000082900923B68049379680391D5F8008044
:103DC00068680099019008350498FCF7DFFE824688
:103DD00003980299FCF76AFE834604980099FCF761
:103DE00065FE009051464046FCF734FF01460098BE
:103DF000FCF7CCFE009059460198FCF72BFF0146DA
:103E00000098FCF7C3FE4FF07C51FCF723FF49F804
:103E1000040B083703980299FCF7B8FE009051464E
:103E20000198FCF717FF0099FCF740FE82464046D8
:103E30005946FCF70FFF01465046FCF7A7FE4FF02E
:103E40007C51FCF707FF641E49F8040BADD105B0A7
:103E5000BDE8F08FF8B504460D46208A1F4640089D
:103E60003900164620800CD029462046FFF778FFFF
:103E70003A463146204601B0BDE8F0400123FCF748
:103E8000B5BD0123002229462046FCF7AFFD32468E
:103E900029462046BDE8F840E4E600004FF4000261
:103EA000C10D23D0FF2929D230EAC15010437D3102
:103EB000490828BF001880004FF0C073B0F190602F
:103EC00006D452080ED2C01A9B18D2EB4000F8D587
:103ED000520806D2C0189B1AD2EB4000F1D5520806
:103EE000F8D35B1E580850EBC1507047B0FA80F110
:103EF00008398840F9D0D1F10101D8E7FF2914BF72
:103F0000C042F2E7D042F0D8C843AFF30080704718
:103F1000F8B50C4641000916491C09D14300191691
:103F2000491C02D11B0240F0A580C20F0BD1F2BD8B
:103F3000694600F03BFB05462946480001D14E4842
:103F4000F2BDC80F04D0AFF300806FF00040F2BDA7
:103F5000002948BFC1F100414848002848BFC0F1CE
:103F60000040814207DA0121284600F03FFB054668
:103F70000098401E009029464148FCF797FD0646F0
:103F80004FF07E502946FCF791FD01463046FDF783
:103F90008DFB05462946FCF75DFE07463948394644
:103FA000FCF758FE3849FCF781FD3946FCF752FE14
:103FB0003649FCF77BFD3946FCF74CFE014630469E
:103FC000FCF7E4FD2946FCF745FE07460098FFF79D
:103FD00037FE002C054611D12D482946FCF73AFE44
:103FE0003946FCF763FD01463046FCF7CFFD044639
:103FF00028482946FCF72EFE214639E023DD2648D5
:104000003146FCF727FE044624483146FCF722FEE1
:10401000064623483946FCF71DFE07462148294637
:10402000FCF718FE3946FCF741FD01463046FCF727
:10403000ADFD2146FCF73AFD04461B482946FCF736
:1040400009FE214614E019483146FCF703FE0446F8
:1040500017483146FCF7FEFD064616483946FCF780
:10406000F9FD3146FCF722FD2146FCF71FFD2946EC
:10407000FCF71CFDF2BD0000000080FFF304353F9B
:10408000000080BF1502993E11AECC3EC0AA2A3F67
:10409000E8E8FBB31672313FD85BDE3E2837A93221
:1040A000D95BDE3EF43EA1B398209A3E3BAAB83FCE
:1040B0006070A5323BAAB8BF012129E7C0F3C75100
:1040C000D1F19E0108DD020242F00042CA4002EB3B
:1040D000E07282EAE07070477FEAE07080F00040B2
:1040E000704700002DE9FC41040000F08781207832
:1040F000DFF87864C10713D5706800F00C0004285D
:1041000007D0706800F00C00082841D17068C10326
:104110003ED53068810303D56068002800F06E81C9
:104120002178880719D5716811F00C0F07D07068D5
:1041300000F00C00082863D17068C10360D43068B7
:10414000810703D52069012840F0588131686069F2
:1041500021F0F80141EAC00131602178080740F1FF
:104160008580A069DFF81414002800F0A6800122E1
:10417000C1F88024FEF708FE0546706A810766D400
:10418000FEF702FE401B0228F7D90320BDE8F681A6
:104190006068B0F5803F04D1306840F48030306012
:1041A00014E008B930680AE0B0F5A02F306806D1F5
:1041B00040F480203060316841F4803105E020F423
:1041C00080303060316821F480213160606858B1FE
:1041D000FEF7DAFD054630688103A1D4FEF7D4FD71
:1041E000401B6528F7D3D0E7FEF7CEFD05463068C3
:1041F000810395D5FEF7C8FD401B6528F7D3C4E7BA
:104200002069DFF87813A8B101220A60FEF7BCFD2F
:1042100005463068810705D4FEF7B6FD401B02282D
:10422000F7D9B2E73068616920F0F80040EAC100D0
:10423000306092E70860FEF7A7FD05463168880701
:104240008BD5FEF7A1FD401B0228F7D99DE7DFF8CB
:1042500020030168C9084FF47A72B1FBF2F20092B0
:1042600000BF0098411E00280091F9D12078410735
:104270006FD5F0690025C10009D4F06940F0805085
:10428000F0610125F06900F0805000900098DFF89F
:10429000F0723868C1051ED4386840F48070386008
:1042A000FEF772FD80463868C10514D4FEF76CFD38
:1042B000A0EB08006528F6D367E7C1F88004FEF795
:1042C00063FD0546706A8107D0D5FEF75DFD401B92
:1042D0000228F7D959E7E068012803D1306A40F095
:1042E000010012E008B9306A09E00528306A06D1F9
:1042F00040F004003062306A40F0010005E0400800
:1043000040003062306A20F00400306241F28937A8
:10431000E06860B1FEF738FD8046306A810713D44B
:10432000FEF732FDA0EB0800B842F6D32DE7FEF70A
:104330002BFD8046306A810706D5FEF725FDA0EBF0
:104340000800B842F6D320E71DB1F06920F0805094
:10435000F061E069002854D0716801F00C0108296F
:104360003FD00228DFF814522DD100202866FEF736
:104370000BFD07463068810105D5FEF705FDC01B22
:104380000228F7D901E7206AB0F5803F05D17168AE
:10439000A06821F40031014371607268206A616A8B
:1043A00022F4741202430A43726001202866FEF769
:1043B000EBFC04463068810123D4FEF7E5FC001BCA
:1043C0000228F7D9E1E600202866FEF7DDFC044666
:1043D0003068810115D5FEF7D7FC001B0228F7D9FC
:1043E000D3E601280AD07068226A00F48031914235
:1043F00002BF00F47010616A884202D00120BDE85B
:10440000F6810020BDE8F6812DE9F84304008846D6
:104410005FD05C4E306800F00700404509D231683B
:10442000C90848EAC1013160306800F00700404522
:104430004FD120684D4D810712D5400703D56968DB
:1044400041F4E06169602078010703D5686840F4B1
:10445000605068606968A06821F0F00101436960FC
:104460002178C80726D56068012802D129688A0307
:1044700003E00228296802D18A0102D429E08A07D0
:1044800027D56968890840EA8100686041F2893966
:10449000FEF77AFC07466868616800F00C00B0EB34
:1044A000810F07D0FEF770FCC01B4845F3D30320F3
:1044B000BDE8F283306800F0070080450CD2316817
:1044C000C90848EAC1013160306800F00700404582
:1044D00002D00120BDE8F2832078410705D56A6843
:1044E000E06822F4E06202436A602178080706D59A
:1044F0006968206921F4605141EAC001696000F0F7
:104500000FF86A6820491A4BC2F30312895CC8404D
:1045100018601948006800F0AFF80020BDE8F28389
:104520001A490A6802F00C00082812D11AA3C2F333
:104530008340D203185C09D50A680E491AA3484380
:10454000C2F340415A5CB0FBF2F070471049484357
:1045500070470848704706480C4A006813680D49C0
:10456000C3F3C222895CC8407047000000100240BB
:104570000C00002000127A000800002000004242D7
:104580000070004000200240D06400080410024087
:1045900000093D00F064000802030405060708094D
:1045A0000A0B0C0D0E0F1010010270470B46F4465B
:1045B00000F002F819606047C0F3C75129B1FF2924
:1045C00012D07E39A0EBC1507047C0420DD000F030
:1045D00000424002B0FA80F188407E31494242EA0E
:1045E000102000F17A507047002170470942C0F353
:1045F000C75208D432B3FF2A35D05218FF2A33D21B
:1046000000EBC150704749425AB1FF2A2BD08B1A98
:104610003CBFA0EBC1507047591C20EAC25040F487
:10462000000002181FD000F000401A2920D8491CB1
:10463000C1F1200322FA01F19A4072F1004348418E
:10464000B2B97047C0420ED000F000425040B0FAFC
:1046500080F3083B994204D998401043C91A4A1C78
:10466000CCE788401043704700F0004040F0FF4026
:10467000AFF300807047000038B50D4D0D4B2A7820
:1046800004464FF47A711868B1FBF2F2B0FBF2F015
:10469000FFF7A9F850B9102C08D2002221464FF09C
:1046A000FF30FFF768F8AC60002032BD012032BD5A
:1046B000000000200C0000202DE9F04190B0DFF850
:1046C0005484D8F8FC0F40F00400C8F8FC0FD8F868
:1046D000FC0F00F0040000900098032000900120DF
:1046E000019003200390002002906946DFF828041F
:1046F000FEF782FED8F8F80F40F00100C8F8F80F76
:10470000D8F8F80F00F0010000900098DFF80C4492
:10471000C4F80080102060600020A060E060A0610C
:104720004FF4807626614FF4806767614FF400553F
:10473000E5612046FEF72EFB002840F08C8008F152
:104740003C0060641020A0640020E06480202065AC
:104750000020E0656665A765256604F14400FEF764
:1047600019FB002877D108F16400C4F888001020F4
:10477000C4F88C000020C4F89000C4F89400C4F879
:10478000A000C4F89860C4F89C70C4F8A45004F168
:104790008800FEF7FFFA00285DD10FF221220021E8
:1047A00004F18800FEF738FC0FF28D22022104F19B
:1047B0008800FEF731FC012200211120FEF7DBFF0B
:1047C0001120FFF705F8D648016841F001010160AA
:1047D000006800F00100009000984FF08040C4F89D
:1047E000CC001D20C4F8D800CE480068CE49B0FBEC
:1047F000F1F0401E80B2C4F8D0000020C4F8DC0004
:10480000C4F8D40004F1CC00FFF718F818BB0890E6
:104810000A9008200990002208A904F1CC00FFF7B3
:104820006BF8C0B90190039015200290042201A9F1
:1048300004F1CC00FFF760F868B9022200211C20C7
:10484000FEF799FF1C20FEF7C3FF042084F8140133
:1048500010B0BDE8F081012084F8140110B0BDE86B
:10486000F081000070B5AD4C94F814010428FDD11E
:10487000022084F814014FF080411D20C8620122FB
:10488000206C02FA00F0E36B586023684FF4406537
:104890005D606068102803D1A4489860A7A002E07A
:1048A000A6A09860A148D860D4F8840002FA00F06D
:1048B000D4F880607060666C7560A06C102803D1BD
:1048C0009A48B0609A4802E09948B0609748F06012
:1048D000D4F8C8008240D4F8C4004260D4F88800FC
:1048E0004560D4F88C20102A04D1904A826000BF21
:1048F00093A202E092A282608C4AC2608D4AF025A7
:1049000015604FF4702515604FF0706515600268F2
:1049100042F00E0202601A6842F001021A60326828
:1049200042F001023260026842F00102026000209F
:104930000861D4F8CC00C16841F48071C160C168DD
:1049400041F40071C160C16841F48061C16001221D
:1049500000214FF08040FFF7C5F8012204214FF0FD
:104960008040FFF7BFF8D4F8CC001D2141620168F8
:1049700041F00101016070BD6F48FEF7A1BA00B5BA
:1049800081B01C20FEF740FF6448D0F8CC100A6AC2
:1049900041F211131A4202BF0A6A40F244431A421A
:1049A00003D10A68520852000A60CA6852085200CD
:1049B000CA60042180F8141101B000BD10B51120A7
:1049C000FEF722FF554C2068016849084900016044
:1049D000606C0168490849000160D4F888000168EA
:1049E000490849000160D4F8CC00C16821F4807105
:1049F000C160C16821F40071C160C16821F48061A7
:104A0000C160002200214FF08040FFF76BF80022C8
:104A100004214FF08040FFF765F84FF0804040F2EE
:104A2000DC51C16200214162D4F8CC00C16841F080
:104A30000101C16010BD0000FEE700002DE930005B
:104A4000364890F814010428FAD10022384B40214E
:104A5000082001249440E4431D8825401D801D8AC0
:104A600025401D821D8C2C401C849B1C401EF0D1B7
:104A70002033491EECD1521CD0B20228E6D330BC00
:104A800070470000022800D37047F0B5402940D29B
:104A9000224C94F81441042CFAD1059C12091B09EC
:104AA00024090025224E01EB4107F90006EB4101E4
:104AB00001268640F6430F8837400F80B1F810C0BA
:104AC00006EA0C0CA1F810C0B1F820E006EA0E06C8
:104AD0000E8403FA05FE4FEAEE1E0EF0010E0EFAEA
:104AE00000FE4EEA07070F8002FA05F7FF1107F0F4
:104AF0000107874047EA0C070F8204FA05F7FF1108
:104B000007F0010787403E430E846D1C891C082D69
:104B1000CEDBF0BD1C000240000801401001002067
:104B20001C1002400C00002000366E010C080140F1
:104B3000280200200400024098010020FFFF00002E
:104B4000000000000000803F000000000FB17F3F28
:104B50002FFB483D6DC47E3F36BDC83DAC3A7D3F1E
:104B60008340163EBE147B3FC2C5473EF853783F94
:104B7000CCCF783E0BFA743F31A0943E0809713FC8
:104B8000D47CAC3E5E836C3F15EFC33ED86B673F71
:104B900080E8DA3E98C5613FEA5AF13E1A945B3FDD
:104BA0003D9C033F31DB543FDA390E3F029F4D3FBE
:104BB000C07F183F03E4453F9967223FF9AE3D3F70
:104BC0004AEB2B3FF304353FF304353F4AEB2B3FD1
:104BD000F9AE3D3F9967223F03E4453FC07F183F50
:104BE000029F4D3FDA390E3F31DB543F3D9C033F7E
:104BF0001A945B3FEA5AF13E98C5613F80E8DA3E7D
:104C0000D86B673F15EFC33E5E836C3FD47CAC3EF0
:104C10000809713F31A0943E0BFA743FCCCF783E27
:104C2000F853783FC2C5473EBE147B3F8340163ED3
:104C3000AC3A7D3F36BDC83D6DC47E3F2FFB483D3D
:104C40000FB17F3F000000000000803F2FFB48BDF8
:104C50000FB17F3F36BDC8BD6DC47E3F834016BED9
:104C6000AC3A7D3FC2C547BEBE147B3FCCCF78BEB9
:104C7000F853783F31A094BE0BFA743FD47CACBE9D
:104C80000809713F15EFC3BE5E836C3F80E8DABE52
:104C9000D86B673FEA5AF1BE98C5613F3D9C03BFA0
:104CA0001A945B3FDA390EBF31DB543FC07F18BF27
:104CB000029F4D3F996722BF03E4453F4AEB2BBF5C
:104CC000F9AE3D3FF30435BFF304353FF9AE3DBFC8
:104CD0004AEB2B3F03E445BF9967223F029F4DBF3C
:104CE000C07F183F31DB54BFDA390E3F1A945BBFE7
:104CF0003D9C033F98C561BFEA5AF13ED86B67BF40
:104D000080E8DA3E5E836CBF15EFC33E080971BFD1
:104D1000D47CAC3E0BFA74BF31A0943EF85378BFFC
:104D2000CCCF783EBE147BBFC2C5473EAC3A7DBFF8
:104D30008340163E6DC47EBF36BDC83D0FB17FBFF8
:104D40002FFB483D000080BF000000000FB17FBF77
:104D50002FFB48BD6DC47EBF36BDC8BDAC3A7DBF1C
:104D6000834016BEBE147BBFC2C547BEF85378BF92
:104D7000CCCF78BE0BFA74BF31A094BE080971BFC6
:104D8000D47CACBE5E836CBF15EFC3BED86B67BF6F
:104D900080E8DABE98C561BFEA5AF1BE1A945BBFDB
:104DA0003D9C03BF31DB54BFDA390EBF029F4DBFBC
:104DB000C07F18BF03E445BF996722BFF9AE3DBF6E
:104DC0004AEB2BBFF30435BFF30435BF4AEB2BBFCF
:104DD000F9AE3DBF996722BF03E445BFC07F18BF4E
:104DE000029F4DBFDA390EBF31DB54BF3D9C03BF7C
:104DF0001A945BBFEA5AF1BE98C561BF80E8DABE7B
:104E0000D86B67BF15EFC3BE5E836CBFD47CACBEEE
:104E1000080971BF31A094BE0BFA74BFCCCF78BE25
:104E2000F85378BFC2C547BEBE147BBF834016BED1
:104E3000AC3A7DBF36BDC8BD6DC47EBF2FFB48BD3B
:104E40000FB17FBF00000080000080BF2FFB483DF6
:104E50000FB17FBF36BDC83D6DC47EBF8340163ED7
:104E6000AC3A7DBFC2C5473EBE147BBFCCCF783EB7
:104E7000F85378BF31A0943E0BFA74BFD47CAC3E9B
:104E8000080971BF15EFC33E5E836CBF80E8DA3E50
:104E9000D86B67BFEA5AF13E98C561BF3D9C033F9E
:104EA0001A945BBFDA390E3F31DB54BFC07F183F25
:104EB000029F4DBF9967223F03E445BF4AEB2B3F5A
:104EC000F9AE3DBFF304353FF30435BFF9AE3D3FC6
:104ED0004AEB2BBF03E4453F996722BF029F4D3F3A
:104EE000C07F18BF31DB543FDA390EBF1A945B3FE5
:104EF0003D9C03BF98C5613FEA5AF1BED86B673F3E
:104F000080E8DABE5E836C3F15EFC3BE0809713FCF
:104F1000D47CACBE0BFA743F31A094BEF853783FFA
:104F2000CCCF78BEBE147B3FC2C547BEAC3A7D3FF6
:104F3000834016BE6DC47E3F36BDC8BD0FB17F3FF6
:104F40002FFB48BD000000000000803FB00AC93CB4
:104F500043EC7F3F2FFB483D0FB17F3F05A9963DB6
:104F60006D4E7F3F36BDC83D6DC47E3F73B2FA3D86
:104F700024137E3F8340163EAC3A7D3FA2102F3E65
:104F8000283B7C3FC2C5473EBE147B3F135C603E5E
:104F90009DC7793FCCCF783EF853783F938E883EBB
:104FA00007BA763F31A0943E0BFA743FE59AA03ED3
:104FB0004714733FD47CAC3E0809713F2A44B83E85
:104FC0009ED86E3F15EFC33E5E836C3FCA7BCF3EDB
:104FD000A7096A3F80E8DA3ED86B673F7533E63E43
:104FE00059AA643FEA5AF13E98C5613F275DFC3EED
:104FF00005BE5E3F3D9C033F1A945B3F9BF5083F17
:105000005348583FDA390E3F31DB543F2A68133F8B
:105010003D4D513FC07F183F029F4D3FD17F1D3F07
:1050200012D1493F9967223F03E4453F5636273F57
:1050300070D8413F4AEB2B3FF9AE3D3FBB85303F37
:105040004268393FF304353FF304353F4268393F46
:10505000BB85303FF9AE3D3F4AEB2B3F70D8413F17
:105060005636273F03E4453F9967223F12D1493F17
:10507000D17F1D3F029F4D3FC07F183F3D4D513FA7
:105080002A68133F31DB543FDA390E3F5348583F0B
:105090009BF5083F1A945B3F3D9C033F05BE5E3F76
:1050A000275DFC3E98C5613FEA5AF13E59AA643F2C
:1050B0007533E63ED86B673F80E8DA3EA7096A3F62
:1050C000CA7BCF3E5E836C3F15EFC33E9ED86E3FDA
:1050D0002A44B83E0809713FD47CAC3E4714733F64
:1050E000E59AA03E0BFA743F31A0943E07BA763F92
:1050F000938E883EF853783FCCCF783E9DC7793F5A
:10510000135C603EBE147B3FC2C5473E283B7C3FDC
:10511000A2102F3EAC3A7D3F8340163E24137E3FC3
:1051200073B2FA3D6DC47E3F36BDC83D6D4E7F3FC4
:1051300005A9963D0FB17F3F2FFB483D43EC7F3FD4
:10514000B00AC93C0000803F0000000043EC7F3FF4
:10515000B00AC9BC0FB17F3F2FFB48BD6D4E7F3FEA
:1051600005A996BD6DC47E3F36BDC8BD24137E3FE4
:1051700073B2FABDAC3A7D3F834016BE283B7C3FFC
:10518000A2102FBEBE147B3FC2C547BE9DC7793F4C
:10519000135C60BEF853783FCCCF78BE07BA763F39
:1051A000938E88BE0BFA743F31A094BE4714733FB0
:1051B000E59AA0BE0809713FD47CACBE9ED86E3F74
:1051C0002A44B8BE5E836C3F15EFC3BEA7096A3F91
:1051D000CA7BCFBED86B673F80E8DABE59AA643F6E
:1051E0007533E6BE98C5613FEA5AF1BE05BE5E3F23
:1051F000275DFCBE1A945B3F3D9C03BF5348583F5C
:105200009BF508BF31DB543FDA390EBF3D4D513FAE
:105210002A6813BF029F4D3FC07F18BF12D1493F7C
:10522000D17F1DBF03E4453F996722BF70D8413F3E
:10523000563627BFF9AE3D3F4AEB2BBF4268393F98
:10524000BB8530BFF304353FF30435BFBB85303F2A
:10525000426839BF4AEB2B3FF9AE3DBF5636273F78
:1052600070D841BF9967223F03E445BFD17F1D3FFE
:1052700012D149BFC07F183F029F4DBF2A68133F1C
:105280003D4D51BFDA390E3F31DB54BF9BF5083F2E
:10529000534858BF3D9C033F1A945BBF275DFC3EBB
:1052A00005BE5EBFEA5AF13E98C561BF7533E63E62
:1052B00059AA64BF80E8DA3ED86B67BFCA7BCF3E8D
:1052C000A7096ABF15EFC33E5E836CBF2A44B83E90
:1052D0009ED86EBFD47CAC3E080971BFE59AA03E53
:1052E000471473BF31A0943E0BFA74BF938E883E6F
:1052F00007BA76BFCCCF783EF85378BF135C603ED8
:105300009DC779BFC2C5473EBE147BBFA2102F3ECA
:10531000283B7CBF8340163EAC3A7DBF73B2FA3D5A
:1053200024137EBF36BDC83D6DC47EBF05A9963D22
:105330006D4E7FBF2FFB483D0FB17FBFB00AC93C08
:1053400043EC7FBF080000021000000418000006B4
:105350002000400028004002300040043800400691
:105360004000800048008002500080045800800601
:105370006000C0006800C0027000C0047800C00671
:1053800080000001880000039000000598000007DD
:10539000A0004001A8004003B0004005B80040074D
:1053A000C0008001C8008003D0008005D8008007BD
:1053B000E000C001E800C003F000C005F800C0072D
:1053C0000001000208010802100108041801080683
:1053D00020018002280148023001480438014806B3
:1053E00040010003480188025001880458018806E2
:1053F000600180036801C8027001C8047801C80612
:105400008001080288010803900108059801080737
:10541000A0018802A8014803B0014805B801480767
:10542000C0010803C8018803D0018805D801880796
:10543000E0018803E801C803F001C805F801C807C6
:1054400008021002000200041002100418021006E4
:105450002002800428025002300250043802500614
:105460004002000548029002500290045802900643
:10547000600280056802D0027002D0047802D00673
:105480008002080488021003900210059802100799
:10549000A0028804A8025003B0025005B8025007C9
:1054A000C0020805C8029003D0029005D8029007F8
:1054B000E0028805E802D003F002D005F802D00728
:1054C000000300060803100610031804180318064A
:1054D000200380062803900630035804380358063A
:1054E0004003000748031007500398045803980628
:1054F00060038007680390077003D8047803D80618
:1055000080030806880318069003180598031807F7
:10551000A0038806A8039806B0035805B8035807E7
:10552000C0030807C8031807D0039805D8039807D5
:10553000E0038807E8039807F003D805F803D807C5
:1055400008048004100420041804200628048005A0
:1055500030046004380460064004000648048804EF
:105560005004A0045804A0066004100668048805CE
:105570007004E0047804E0068804800690042005A6
:1055800098042007A0040806A8048007B00460055A
:10559000B8046007C0042006C8048806D004A0052B
:1055A000D804A007E0041806E8048807F004E00522
:1055B000F804E007080520051005800518052806F1
:1055C0002805900530058805380568064005000760
:1055D00048052007500580075805A80660050807FC
:1055E00068059805700588077805E806880590061F
:1055F00098052807A0052806A8059007B0052807E4
:10560000B8056807C0051007C8059806D0059007BB
:10561000D805A807E0051807E8059807F0059807DA
:10562000F805E80718063006380670064006000739
:1056300048068007500608075806B006600610079F
:1056400068069007700618077806F0068806A00618
:1056500098063007A806A007B0068807B8067007A6
:10566000C0062007C806A007D0062807D806B0073E
:10567000E0063007E806A807F0069807F806F007E6
:105680004807500738079807500760075807700702
:105690006007C0076807D0077807F0077007E007C2
:1056A000B807F007A807B007D807F007C807E00752
:1056B000E807F0070000803F000000006DC47E3F57
:1056C00036BDC83DBE147B3FC2C5473E0BFA743F92
:1056D00031A0943E5E836C3F15EFC33E98C5613F99
:1056E000EA5AF13E31DB543FDA390E3F03E4453FDD
:1056F0009967223FF304353FF304353F9967223F12
:1057000003E4453FDA390E3F31DB543FEA5AF13EBC
:1057100098C5613F15EFC33E5E836C3F31A0943E58
:105720000BFA743FC2C5473EBE147B3F36BDC83D31
:105730006DC47E3F000000000000803F36BDC8BD44
:105740006DC47E3FC2C547BEBE147B3F31A094BE30
:105750000BFA743F15EFC3BE5E836C3FEA5AF1BE8D
:1057600098C5613FDA390EBF31DB543F996722BFDC
:1057700003E4453FF30435BFF304353F03E445BF7D
:105780009967223F31DB54BFDA390E3F98C561BFBC
:10579000EA5AF13E5E836CBF15EFC33E0BFA74BF4D
:1057A00031A0943EBE147BBFC2C5473E6DC47EBFD0
:1057B00036BDC83D000080BF000000006DC47EBF44
:1057C00036BDC8BDBE147BBFC2C547BE0BFA74BF91
:1057D00031A094BE5E836CBF15EFC3BE98C561BF98
:1057E000EA5AF1BE31DB54BFDA390EBF03E445BFDC
:1057F000996722BFF30435BFF30435BF996722BF11
:1058000003E445BFDA390EBF31DB54BFEA5AF1BEBB
:1058100098C561BF15EFC3BE5E836CBF31A094BE57
:105820000BFA74BFC2C547BEBE147BBF36BDC8BD30
:105830006DC47EBF00000080000080BF36BDC83D43
:105840006DC47EBFC2C5473EBE147BBF31A0943E2F
:105850000BFA74BF15EFC33E5E836CBFEA5AF13E8C
:1058600098C561BFDA390E3F31DB54BF9967223FDB
:1058700003E445BFF304353FF30435BF03E4453F7C
:10588000996722BF31DB543FDA390EBF98C5613FBB
:10589000EA5AF1BE5E836C3F15EFC3BE0BFA743F4C
:1058A00031A094BEBE147B3FC2C547BE6DC47E3FCF
:1058B00036BDC8BD000000000000803F2FFB483D02
:1058C0000FB17F3F36BDC83D6DC47E3F8340163E5D
:1058D000AC3A7D3FC2C5473EBE147B3FCCCF783E3D
:1058E000F853783F31A0943E0BFA743FD47CAC3E21
:1058F0000809713F15EFC33E5E836C3F80E8DA3ED6
:10590000D86B673FEA5AF13E98C5613F3D9C033F23
:105910001A945B3FDA390E3F31DB543FC07F183FAA
:10592000029F4D3F9967223F03E4453F4AEB2B3FDF
:10593000F9AE3D3FF304353FF304353FF9AE3D3F4B
:105940004AEB2B3F03E4453F9967223F029F4D3FBF
:10595000C07F183F31DB543FDA390E3F1A945B3F6A
:105960003D9C033F98C5613FEA5AF13ED86B673FC3
:1059700080E8DA3E5E836C3F15EFC33E0809713F55
:10598000D47CAC3E0BFA743F31A0943EF853783F80
:10599000CCCF783EBE147B3FC2C5473EAC3A7D3F7C
:1059A0008340163E6DC47E3F36BDC83D0FB17F3F7C
:1059B0002FFB483D0000803F000000000FB17F3FFB
:1059C0002FFB48BD6DC47E3F36BDC8BDAC3A7D3FA0
:1059D000834016BEBE147B3FC2C547BEF853783F16
:1059E000CCCF78BE0BFA743F31A094BE0809713F4A
:1059F000D47CACBE5E836C3F15EFC3BED86B673FF3
:105A000080E8DABE98C5613FEA5AF1BE1A945B3F5E
:105A10003D9C03BF31DB543FDA390EBF029F4D3F3F
:105A2000C07F18BF03E4453F996722BFF9AE3D3FF1
:105A30004AEB2BBFF304353FF30435BF4AEB2B3F52
:105A4000F9AE3DBF9967223F03E445BFC07F183FD1
:105A5000029F4DBFDA390E3F31DB54BF3D9C033FFF
:105A60001A945BBFEA5AF13E98C561BF80E8DA3EFE
:105A7000D86B67BF15EFC33E5E836CBFD47CAC3E72
:105A8000080971BF31A0943E0BFA74BFCCCF783EA9
:105A9000F85378BFC2C5473EBE147BBF8340163E55
:105AA000AC3A7DBF36BDC83D6DC47EBF2FFB483DBF
:105AB0000FB17FBF08000002100040001800400234
:105AC00020008000280080023000C0003800C002A2
:105AD000400000014800000350004001580040030E
